{
  "contractName": "Lib",
  "abi": [
    {
      "constant": true,
      "inputs": [
        {
          "name": "s",
          "type": "string"
        }
      ],
      "name": "stringToAddress",
      "outputs": [
        {
          "name": "",
          "type": "address"
        }
      ],
      "payable": false,
      "stateMutability": "pure",
      "type": "function"
    },
    {
      "constant": true,
      "inputs": [
        {
          "name": "x",
          "type": "address"
        }
      ],
      "name": "addressToString",
      "outputs": [
        {
          "name": "",
          "type": "string"
        }
      ],
      "payable": false,
      "stateMutability": "pure",
      "type": "function"
    },
    {
      "constant": true,
      "inputs": [
        {
          "name": "s1",
          "type": "string"
        },
        {
          "name": "s2",
          "type": "string"
        }
      ],
      "name": "mergeStrings",
      "outputs": [
        {
          "name": "",
          "type": "string"
        }
      ],
      "payable": false,
      "stateMutability": "pure",
      "type": "function"
    },
    {
      "constant": true,
      "inputs": [
        {
          "name": "n",
          "type": "int256"
        }
      ],
      "name": "intToStr",
      "outputs": [
        {
          "name": "",
          "type": "string"
        }
      ],
      "payable": false,
      "stateMutability": "pure",
      "type": "function"
    }
  ],
  "bytecode": "0x6106c8610030600b82828239805160001a6073146000811461002057610022565bfe5b5030600052607381538281f30073000000000000000000000000000000000000000030146080604052600436106100785763ffffffff7c010000000000000000000000000000000000000000000000000000000060003504166315706fdf811461007d5780635e57966d146100f25780639e86bbf714610188578063ec5532a314610193575b600080fd5b6040805160206004803580820135601f81018490048402850184019095528484526100c994369492936024939284019190819084018382808284375094975061021d9650505050505050565b6040805173ffffffffffffffffffffffffffffffffffffffff9092168252519081900360200190f35b61011373ffffffffffffffffffffffffffffffffffffffff6004351661026f565b6040805160208082528351818301528351919283929083019185019080838360005b8381101561014d578181015183820152602001610135565b50505050905090810190601f16801561017a5780820380516001836020036101000a031916815260200191505b509250505060405180910390f35b61011360043561030a565b6040805160206004803580820135601f810184900484028501840190955284845261011394369492936024939284019190819084018382808284375050604080516020601f89358b018035918201839004830284018301909452808352979a9998810197919650918201945092508291508401838280828437509497506104e19650505050505050565b60008080805b60148160ff1610156102665761010083029250848160ff1681518110151561024757fe5b016020015160f860020a90819004810204928301929150600101610223565b50909392505050565b60408051601480825281830190925260609182916000918291906020820161028080388339019050509250600090505b6014811015610266578060130360080260020a8573ffffffffffffffffffffffffffffffffffffffff168115156102d257fe5b0491508160f860020a0283828151811015156102ea57fe5b906020010190600160f860020a031916908160001a90535060010161029f565b6060600a600080808581868183121561032557600019830292505b600191505b8682101561037657818703600a0a9450848381151561034557fe5b07935060008585850381151561035757fe5b05131561036b578187036001019650610376565b60019091019061032a565b600089121561040357866001016040519080825280601f01601f1916602001820160405280156103b0578160200160208202803883390190505b5090507f2d0000000000000000000000000000000000000000000000000000000000000081878151811015156103e257fe5b906020010190600160f860020a031916908160001a90535060019550610435565b866040519080825280601f01601f191660200182016040528015610431578160200160208202803883390190505b5090505b600191505b8682116104d557818703600a0a9450848381151561045457fe5b07935060008585850381151561046657fe5b0513156104ca578484840381151561047a57fe5b0560300160f860020a02818781518110151561049257fe5b906020010190600160f860020a031916908160001a905350818703600a0a858585038115156104bd57fe5b6001909801970502909203915b60019091019061043a565b98975050505050505050565b60608060608060606000808895508794506040805190810160405280600181526020017f7c00000000000000000000000000000000000000000000000000000000000000815250935083518551875101016040519080825280601f01601f19166020018201604052801561055f578160200160208202803883390190505b509250600091505b85518210156105c257858281518110151561057e57fe5b90602001015160f860020a900460f860020a02838381518110151561059f57fe5b906020010190600160f860020a031916908160001a905350600190910190610567565b505083516000905b83518210156106275783828151811015156105e157fe5b90602001015160f860020a900460f860020a028383830181518110151561060457fe5b906020010190600160f860020a031916908160001a9053506001909101906105ca565b505081518451600091015b845182101561068f57848281518110151561064957fe5b90602001015160f860020a900460f860020a028383830181518110151561066c57fe5b906020010190600160f860020a031916908160001a905350600190910190610632565b50909796505050505050505600a165627a7a723058201dc2cf8aec22f4a06281c874a78f587f28bca3a03756e89cfb7e95b409bf87ea0029",
  "source": "pragma solidity ^0.4.4;\n\nlibrary Lib{\n    function stringToAddress(string s) public pure returns (address) {\n        uint160 m = 0;\n        uint160 b = 0;\n        \n        for (uint8 i = 0; i < 20; i++) {\n            m *= 256;\n            b = uint160(bytes(s)[i]);\n            m += (b);\n        }\n        return address(m);\n    }\n\n    function addressToString(address x) public pure returns (string) {\n        bytes memory b = new bytes(20);\n        uint8 nTemp;\n        for (uint i = 0; i < 20; i++) {\n            nTemp = uint8(uint(x) / (2**(8*(19 - i))));\n            b[i] = byte(nTemp);            \n        }\n\n        return string(b);\n    }\n\n    function mergeStrings(string s1, string s2) public pure returns (string)\n    {\n        bytes memory d1 = bytes(s1);\n        bytes memory d2 = bytes(s2);\n        bytes memory de = \"|\";\n\n        bytes memory result = new bytes(d1.length + d2.length + de.length);\n\n        for(uint n = 0 ; n < d1.length; n++) {\n            result[n] = d1[n];\n        }\n\n        uint i = d1.length;\n        for(n = 0 ; n < de.length; n++) {\n            result[i + n] = de[n];\n        }\n\n        i = d1.length + de.length;\n        for(n = 0 ; n < d2.length; n++) {\n            result[i + n] = d2[n];\n        }\n        return string(result);\n    }\n\n    function intToStr(int n) public pure returns (string)\n    {\n        uint length=10;\n        uint i = 0;int d;int t;int v = n;\n        if(n < 0) {\n            v *= -1;\n        }\n\n        for(uint j = 1; j < length; j++) {\n            d = int(10 ** (length - j));\n\n            t = v % d;\n            if((v-t)/d > 0) {\n                length = (length - j) + 1;\n                break;\n            }\n        }\n\n        bytes memory buffer;\n        if(n < 0) {\n            buffer = new bytes(length + 1);\n            buffer[i] = byte(\"-\");\n            i  = 1;\n        } else {\n            buffer = new bytes(length);\n        }\n\n        for(j = 1;j <= length; j++) {\n            d = int(10 ** (length - j));\n\n            t = v % d;\n            if((v - t) / d > 0) {\n                buffer[i] = byte(((v-t) /d) + 48);\n                v -= ((v-t) / d) * int(10 ** (length - j));\n                i++;\n            }\n\n        }\n        return string(buffer);\n    }  \n\n\n/*\n    function strToByte(string str) public pure returns (byte[100])\n    {\n        bytes memory d = bytes(str);\n        byte[100] memory buffer;\n\n        for(uint i = 0 ; i < 100; i++) {\n            if(i < d.length) {\n                buffer[i] = byte(d[i]);\n            } else {\n                buffer[i] = 0x00;\n            }\n        }\n        return buffer;\n    }    \n\n    function strToByte1000(string str) public pure returns (byte[1000])\n    {\n        bytes memory d = bytes(str);\n        byte[1000] memory buffer;\n        for(uint i = 0 ; i < 1000; i++) {\n            if(i < d.length) {\n                buffer[i] = byte(d[i]);\n            } else {\n                buffer[i] = 0x00;\n            }\n        }\n        return buffer;\n    }   \n    */\n}\n",
  "sourcePath": "C:\\truffle\\ethclaim\\contracts\\Lib.sol",
  "compiler": {
    "name": "solc",
    "version": "0.4.24+commit.e67f0147.Emscripten.clang"
  },
  "schemaVersion": "2.0.1",
  "updatedAt": "2018-12-23T23:50:19.141Z"
}