{
  "contractName": "Organization",
  "abi": [
    {
      "inputs": [],
      "payable": false,
      "stateMutability": "nonpayable",
      "type": "constructor"
    },
    {
      "constant": false,
      "inputs": [
        {
          "name": "pAddr",
          "type": "string"
        },
        {
          "name": "pName",
          "type": "string"
        },
        {
          "name": "pPurpose",
          "type": "string"
        }
      ],
      "name": "setOrganization",
      "outputs": [],
      "payable": false,
      "stateMutability": "nonpayable",
      "type": "function"
    },
    {
      "constant": false,
      "inputs": [
        {
          "name": "pDept",
          "type": "string"
        }
      ],
      "name": "appendDepartment",
      "outputs": [],
      "payable": false,
      "stateMutability": "nonpayable",
      "type": "function"
    },
    {
      "constant": false,
      "inputs": [
        {
          "name": "pStaff",
          "type": "string"
        }
      ],
      "name": "appendStaff",
      "outputs": [],
      "payable": false,
      "stateMutability": "nonpayable",
      "type": "function"
    },
    {
      "constant": false,
      "inputs": [
        {
          "name": "pPerAddr",
          "type": "string"
        },
        {
          "name": "pPath",
          "type": "string"
        },
        {
          "name": "pAcqDate",
          "type": "string"
        },
        {
          "name": "pEndDate",
          "type": "string"
        }
      ],
      "name": "appendAcqPI",
      "outputs": [],
      "payable": false,
      "stateMutability": "nonpayable",
      "type": "function"
    },
    {
      "constant": true,
      "inputs": [],
      "name": "getAddr",
      "outputs": [
        {
          "name": "",
          "type": "address"
        }
      ],
      "payable": false,
      "stateMutability": "view",
      "type": "function"
    },
    {
      "constant": true,
      "inputs": [],
      "name": "getName",
      "outputs": [
        {
          "name": "",
          "type": "string"
        }
      ],
      "payable": false,
      "stateMutability": "view",
      "type": "function"
    },
    {
      "constant": true,
      "inputs": [],
      "name": "getPurpose",
      "outputs": [
        {
          "name": "",
          "type": "string"
        }
      ],
      "payable": false,
      "stateMutability": "view",
      "type": "function"
    },
    {
      "constant": true,
      "inputs": [
        {
          "name": "idx",
          "type": "uint32"
        }
      ],
      "name": "getDepartmenAt",
      "outputs": [
        {
          "name": "",
          "type": "string"
        }
      ],
      "payable": false,
      "stateMutability": "view",
      "type": "function"
    },
    {
      "constant": true,
      "inputs": [
        {
          "name": "idx",
          "type": "uint32"
        }
      ],
      "name": "getStaffAt",
      "outputs": [
        {
          "name": "",
          "type": "string"
        }
      ],
      "payable": false,
      "stateMutability": "view",
      "type": "function"
    },
    {
      "constant": true,
      "inputs": [
        {
          "name": "idx",
          "type": "uint32"
        }
      ],
      "name": "getAcqPIperAddrAt",
      "outputs": [
        {
          "name": "",
          "type": "string"
        }
      ],
      "payable": false,
      "stateMutability": "view",
      "type": "function"
    },
    {
      "constant": true,
      "inputs": [
        {
          "name": "idx",
          "type": "uint32"
        }
      ],
      "name": "getAcqPIpathAt",
      "outputs": [
        {
          "name": "",
          "type": "string"
        }
      ],
      "payable": false,
      "stateMutability": "view",
      "type": "function"
    },
    {
      "constant": true,
      "inputs": [
        {
          "name": "idx",
          "type": "uint32"
        }
      ],
      "name": "getAcqPIacqDateAt",
      "outputs": [
        {
          "name": "",
          "type": "string"
        }
      ],
      "payable": false,
      "stateMutability": "view",
      "type": "function"
    },
    {
      "constant": true,
      "inputs": [
        {
          "name": "idx",
          "type": "uint32"
        }
      ],
      "name": "getAcqPIendDateAt",
      "outputs": [
        {
          "name": "",
          "type": "string"
        }
      ],
      "payable": false,
      "stateMutability": "view",
      "type": "function"
    }
  ],
  "bytecode": "0x608060405234801561001057600080fd5b50610c5b806100206000396000f3006080604052600436106100c45763ffffffff7c010000000000000000000000000000000000000000000000000000000060003504166317d7de7c81146100c957806325093c5f146101535780632fe41f0a146101ae578063474ba8d0146101cc5780634dab7c9a146102df5780634fd26848146102fd5780636204d3471461035657806367a444091461042b5780638456062514610449578063a69750c41461045e578063a74c2bb61461047c578063ad69d676146104ba578063e9127e79146104d8575b600080fd5b3480156100d557600080fd5b506100de6104f6565b6040805160208082528351818301528351919283929083019185019080838360005b83811015610118578181015183820152602001610100565b50505050905090810190601f1680156101455780820380516001836020036101000a031916815260200191505b509250505060405180910390f35b34801561015f57600080fd5b506040805160206004803580820135601f81018490048402850184019095528484526101ac94369492936024939284019190819084018382808284375094975061058c9650505050505050565b005b3480156101ba57600080fd5b506100de63ffffffff600435166105d5565b3480156101d857600080fd5b506040805160206004803580820135601f81018490048402850184019095528484526101ac94369492936024939284019190819084018382808284375050604080516020601f89358b018035918201839004830284018301909452808352979a99988101979196509182019450925082915084018382808284375050604080516020601f89358b018035918201839004830284018301909452808352979a99988101979196509182019450925082915084018382808284375050604080516020601f89358b018035918201839004830284018301909452808352979a99988101979196509182019450925082915084018382808284375094975061068e9650505050505050565b3480156102eb57600080fd5b506100de63ffffffff60043516610757565b34801561030957600080fd5b506040805160206004803580820135601f81018490048402850184019095528484526101ac9436949293602493928401919081908401838280828437509497506107d19650505050505050565b34801561036257600080fd5b506040805160206004803580820135601f81018490048402850184019095528484526101ac94369492936024939284019190819084018382808284375050604080516020601f89358b018035918201839004830284018301909452808352979a99988101979196509182019450925082915084018382808284375050604080516020601f89358b018035918201839004830284018301909452808352979a9998810197919650918201945092508291508401838280828437509497506108159650505050505050565b34801561043757600080fd5b506100de63ffffffff6004351661096f565b34801561045557600080fd5b506100de610a00565b34801561046a57600080fd5b506100de63ffffffff60043516610a61565b34801561048857600080fd5b50610491610ae5565b6040805173ffffffffffffffffffffffffffffffffffffffff9092168252519081900360200190f35b3480156104c657600080fd5b506100de63ffffffff60043516610b01565b3480156104e457600080fd5b506100de63ffffffff60043516610b80565b60018054604080516020601f600260001961010087891615020190951694909404938401819004810282018101909252828152606093909290918301828280156105815780601f1061055657610100808354040283529160200191610581565b820191906000526020600020905b81548152906001019060200180831161056457829003601f168201915b505050505090505b90565b600280546001810180835560009290925282516105d0917f405787fa12a823e0f2b7631cc41b3ba8828b3321ca811111fa75cd3aa3bb5ace01906020850190610b97565b505050565b606060058263ffffffff168154811015156105ec57fe5b6000918252602091829020600360049092020101805460408051601f60026000196101006001871615020190941693909304928301859004850281018501909152818152928301828280156106825780601f1061065757610100808354040283529160200191610682565b820191906000526020600020905b81548152906001019060200180831161066557829003601f168201915b50505050509050919050565b60408051608081018252858152602080820186905291810184905260608101839052600580546001810180835560009290925282518051929460049092027f036b6384b5eca791c62761152d0c79bb0604c104a5fb6f4eb0703f3154bb3db001926106fc9284920190610b97565b5060208281015180516107159260018501920190610b97565b5060408201518051610731916002840191602090910190610b97565b506060820151805161074d916003840191602090910190610b97565b5050505050505050565b606060028263ffffffff1681548110151561076e57fe5b600091825260209182902001805460408051601f60026000196101006001871615020190941693909304928301859004850281018501909152818152928301828280156106825780601f1061065757610100808354040283529160200191610682565b600480546001810180835560009290925282516105d0917f8a35acfbc15ff81a39ae7d344fd709f28e8600b4aa8c65c6b64bfe7fe36bd19b01906020850190610b97565b6040517f15706fdf00000000000000000000000000000000000000000000000000000000815260206004820181815285516024840152855173__Lib___________________________________936315706fdf9388939283926044019185019080838360005b8381101561089357818101518382015260200161087b565b50505050905090810190601f1680156108c05780820380516001836020036101000a031916815260200191505b509250505060206040518083038186803b1580156108dd57600080fd5b505af41580156108f1573d6000803e3d6000fd5b505050506040513d602081101561090757600080fd5b50516000805473ffffffffffffffffffffffffffffffffffffffff191673ffffffffffffffffffffffffffffffffffffffff9092169190911790558151610955906001906020850190610b97565b508051610969906003906020840190610b97565b50505050565b606060058263ffffffff1681548110151561098657fe5b90600052602060002090600402016001018054600181600116156101000203166002900480601f0160208091040260200160405190810160405280929190818152602001828054600181600116156101000203166002900480156106825780601f1061065757610100808354040283529160200191610682565b60038054604080516020601f60026000196101006001881615020190951694909404938401819004810282018101909252828152606093909290918301828280156105815780601f1061055657610100808354040283529160200191610581565b606060058263ffffffff16815481101515610a7857fe5b600091825260209182902060026004909202018101805460408051601f6000196101006001861615020190931694909404918201859004850284018501905280835291929091908301828280156106825780601f1061065757610100808354040283529160200191610682565b60005473ffffffffffffffffffffffffffffffffffffffff1690565b606060058263ffffffff16815481101515610b1857fe5b6000918252602091829020600490910201805460408051601f60026000196101006001871615020190941693909304928301859004850281018501909152818152928301828280156106825780601f1061065757610100808354040283529160200191610682565b606060048263ffffffff1681548110151561076e57fe5b828054600181600116156101000203166002900490600052602060002090601f016020900481019282601f10610bd857805160ff1916838001178555610c05565b82800160010185558215610c05579182015b82811115610c05578251825591602001919060010190610bea565b50610c11929150610c15565b5090565b61058991905b80821115610c115760008155600101610c1b5600a165627a7a723058200a07638f7fe549943aa2ae6e950a8f9bf8393f8eae81650e99f27b6ef171c6ae0029",
  "source": "pragma solidity ^0.4.21;\r\nimport \"./Lib.sol\";\r\ncontract Organization {\r\n    address addr;\r\n    string name;\r\n    string[] departmentList;\r\n    string purpose;\r\n    string[] staffs;\r\n    //mapping (address => AcqPI) acqPIs;\r\n    AcqPI[] acqPIs;\r\n    \r\n    struct AcqPI {\r\n        string perAddr;\r\n        string path;\r\n        string acqDate;\r\n        string endDate;\r\n    }\r\n    constructor () public{}\r\n    \r\n    function setOrganization (string pAddr, string pName, string pPurpose) public {\r\n       // check require     \r\n       /*\r\n        require(pAddr != 0x0);\r\n        require(keccak256(pName) !=  keccak256(\"\"));        \r\n        require(keccak256(purpose) !=  keccak256(\"\"));        \r\n        */\r\n        \r\n        addr = Lib.stringToAddress(pAddr);\r\n        name = pName;\r\n        purpose = pPurpose;\r\n    }\r\n    \r\n    function appendDepartment(string pDept) public {\r\n        //require(keccak256(pDept) !=  keccak256(\"\"));\r\n        departmentList.push(pDept);\r\n    }\r\n    \r\n    function appendStaff(string pStaff) public {\r\n        //require(keccak256(pStaff) !=  keccak256(\"\"));\r\n        staffs.push(pStaff);\r\n    }\r\n\r\n    function appendAcqPI(string pPerAddr,\r\n        string pPath,\r\n        string pAcqDate,\r\n        string pEndDate) public \r\n    {\r\n        acqPIs.push(AcqPI(pPerAddr,pPath,pAcqDate,pEndDate));\r\n    }\r\n\r\n    function getAddr() public constant returns(address){return addr;}\r\n    function getName() public constant returns(string){return name;}\r\n    function getPurpose() public constant returns(string){return purpose;}\r\n    function getDepartmenAt(uint32 idx) public constant returns(string){return departmentList[idx];}\r\n    function getStaffAt(uint32 idx) public constant returns(string){return staffs[idx];}\r\n\r\n    function getAcqPIperAddrAt(uint32 idx) public constant returns(string){return acqPIs[idx].perAddr;}\r\n    function getAcqPIpathAt(uint32 idx) public constant returns(string){return acqPIs[idx].path;}\r\n    function getAcqPIacqDateAt(uint32 idx) public constant returns(string){return acqPIs[idx].acqDate;}\r\n    function getAcqPIendDateAt(uint32 idx) public constant returns(string){return acqPIs[idx].endDate;}\r\n\r\n/*\r\n    function getAcqPIperAddr(string pAddr) public constant returns(address){return acqPIs[Lib.stringToAddress(pAddr)].perAddr;}\r\n    function getAcqPIpath(string pAddr) public constant returns(string){return acqPIs[Lib.stringToAddress(pAddr)].path;}\r\n    function getAcqPIacqDate(string pAddr) public constant returns(string){return acqPIs[Lib.stringToAddress(pAddr)].acqDate;}\r\n    function getAcqPIendDate(string pAddr) public constant returns(string){return acqPIs[Lib.stringToAddress(pAddr)].endDate;}\r\n*/\r\n}",
  "sourcePath": "C:\\truffle\\ethclaim\\contracts\\Organization.sol",
  "compiler": {
    "name": "solc",
    "version": "0.4.24+commit.e67f0147.Emscripten.clang"
  },
  "schemaVersion": "2.0.1",
  "updatedAt": "2018-12-23T23:50:19.136Z"
}