{
  "contractName": "Person",
  "abi": [
    {
      "inputs": [],
      "payable": false,
      "stateMutability": "nonpayable",
      "type": "constructor"
    },
    {
      "constant": false,
      "inputs": [
        {
          "name": "pAddr",
          "type": "string"
        },
        {
          "name": "pName",
          "type": "string"
        },
        {
          "name": "pID",
          "type": "string"
        },
        {
          "name": "pRegistNum",
          "type": "string"
        },
        {
          "name": "pBirth",
          "type": "string"
        },
        {
          "name": "pGender",
          "type": "string"
        }
      ],
      "name": "setPerson",
      "outputs": [],
      "payable": false,
      "stateMutability": "nonpayable",
      "type": "function"
    },
    {
      "constant": false,
      "inputs": [
        {
          "name": "pMedOrgAddr",
          "type": "string"
        },
        {
          "name": "pTreatDate",
          "type": "string"
        },
        {
          "name": "pDiseaseCode",
          "type": "string"
        },
        {
          "name": "pDepart",
          "type": "string"
        },
        {
          "name": "pMedStaff",
          "type": "string"
        },
        {
          "name": "pClsData",
          "type": "string"
        },
        {
          "name": "pAttachKey",
          "type": "string"
        }
      ],
      "name": "appendMR",
      "outputs": [],
      "payable": false,
      "stateMutability": "nonpayable",
      "type": "function"
    },
    {
      "constant": true,
      "inputs": [],
      "name": "getAddr",
      "outputs": [
        {
          "name": "",
          "type": "address"
        }
      ],
      "payable": false,
      "stateMutability": "view",
      "type": "function"
    },
    {
      "constant": true,
      "inputs": [],
      "name": "getName",
      "outputs": [
        {
          "name": "",
          "type": "string"
        }
      ],
      "payable": false,
      "stateMutability": "view",
      "type": "function"
    },
    {
      "constant": true,
      "inputs": [],
      "name": "getID",
      "outputs": [
        {
          "name": "",
          "type": "string"
        }
      ],
      "payable": false,
      "stateMutability": "view",
      "type": "function"
    },
    {
      "constant": true,
      "inputs": [],
      "name": "getRegistNum",
      "outputs": [
        {
          "name": "",
          "type": "string"
        }
      ],
      "payable": false,
      "stateMutability": "view",
      "type": "function"
    },
    {
      "constant": true,
      "inputs": [],
      "name": "getBirth",
      "outputs": [
        {
          "name": "",
          "type": "string"
        }
      ],
      "payable": false,
      "stateMutability": "view",
      "type": "function"
    },
    {
      "constant": true,
      "inputs": [],
      "name": "getGender",
      "outputs": [
        {
          "name": "",
          "type": "string"
        }
      ],
      "payable": false,
      "stateMutability": "view",
      "type": "function"
    },
    {
      "constant": true,
      "inputs": [],
      "name": "getMRLength",
      "outputs": [
        {
          "name": "",
          "type": "uint256"
        }
      ],
      "payable": false,
      "stateMutability": "view",
      "type": "function"
    },
    {
      "constant": true,
      "inputs": [
        {
          "name": "idx",
          "type": "uint256"
        }
      ],
      "name": "getMRtreatDate",
      "outputs": [
        {
          "name": "",
          "type": "string"
        }
      ],
      "payable": false,
      "stateMutability": "view",
      "type": "function"
    },
    {
      "constant": true,
      "inputs": [
        {
          "name": "idx",
          "type": "uint256"
        }
      ],
      "name": "getMRdiseaseCode",
      "outputs": [
        {
          "name": "",
          "type": "string"
        }
      ],
      "payable": false,
      "stateMutability": "view",
      "type": "function"
    },
    {
      "constant": true,
      "inputs": [
        {
          "name": "idx",
          "type": "uint256"
        }
      ],
      "name": "getMRdepart",
      "outputs": [
        {
          "name": "",
          "type": "string"
        }
      ],
      "payable": false,
      "stateMutability": "view",
      "type": "function"
    },
    {
      "constant": true,
      "inputs": [
        {
          "name": "idx",
          "type": "uint256"
        }
      ],
      "name": "getMRmedStaff",
      "outputs": [
        {
          "name": "",
          "type": "string"
        }
      ],
      "payable": false,
      "stateMutability": "view",
      "type": "function"
    },
    {
      "constant": true,
      "inputs": [
        {
          "name": "idx",
          "type": "uint256"
        }
      ],
      "name": "getMRclsData",
      "outputs": [
        {
          "name": "",
          "type": "string"
        }
      ],
      "payable": false,
      "stateMutability": "view",
      "type": "function"
    },
    {
      "constant": true,
      "inputs": [
        {
          "name": "idx",
          "type": "uint256"
        }
      ],
      "name": "getMRattachKey",
      "outputs": [
        {
          "name": "",
          "type": "string"
        }
      ],
      "payable": false,
      "stateMutability": "view",
      "type": "function"
    },
    {
      "constant": true,
      "inputs": [
        {
          "name": "idx",
          "type": "uint256"
        }
      ],
      "name": "getMRmedOrgAddr",
      "outputs": [
        {
          "name": "",
          "type": "address"
        }
      ],
      "payable": false,
      "stateMutability": "view",
      "type": "function"
    }
  ],
  "bytecode": "0x608060405234801561001057600080fd5b50611073806100206000396000f3006080604052600436106100e55763ffffffff7c01000000000000000000000000000000000000000000000000000000006000350416631770c2e981146100ea57806317d7de7c1461017757806319e509441461018c5780634af3a6e5146101a45780635309ce58146101bc5780635b4f9621146101d457806360bfdd24146101ec5780637c38a8c314610213578063a74c2bb614610228578063ab9dbd0714610266578063d12a7f291461027b578063d274a03014610290578063de2bec991461045f578063e2c4206a14610477578063e4f7919b1461048f578063f2188a841461061e575b600080fd5b3480156100f657600080fd5b50610102600435610633565b6040805160208082528351818301528351919283929083019185019080838360005b8381101561013c578181015183820152602001610124565b50505050905090810190601f1680156101695780820380516001836020036101000a031916815260200191505b509250505060405180910390f35b34801561018357600080fd5b506101026106e6565b34801561019857600080fd5b5061010260043561077a565b3480156101b057600080fd5b506101026004356107f6565b3480156101c857600080fd5b50610102600435610872565b3480156101e057600080fd5b506101026004356108ee565b3480156101f857600080fd5b50610201610979565b60408051918252519081900360200190f35b34801561021f57600080fd5b5061010261097f565b34801561023457600080fd5b5061023d6109e0565b6040805173ffffffffffffffffffffffffffffffffffffffff9092168252519081900360200190f35b34801561027257600080fd5b506101026109fc565b34801561028757600080fd5b50610102610a5c565b34801561029c57600080fd5b506040805160206004803580820135601f810184900484028501840190955284845261045d94369492936024939284019190819084018382808284375050604080516020601f89358b018035918201839004830284018301909452808352979a99988101979196509182019450925082915084018382808284375050604080516020601f89358b018035918201839004830284018301909452808352979a99988101979196509182019450925082915084018382808284375050604080516020601f89358b018035918201839004830284018301909452808352979a99988101979196509182019450925082915084018382808284375050604080516020601f89358b018035918201839004830284018301909452808352979a99988101979196509182019450925082915084018382808284375050604080516020601f89358b018035918201839004830284018301909452808352979a99988101979196509182019450925082915084018382808284375050604080516020601f89358b018035918201839004830284018301909452808352979a999881019791965091820194509250829150840183828082843750949750610abd9650505050505050565b005b34801561046b57600080fd5b5061023d600435610cf9565b34801561048357600080fd5b50610102600435610d37565b34801561049b57600080fd5b506040805160206004803580820135601f810184900484028501840190955284845261045d94369492936024939284019190819084018382808284375050604080516020601f89358b018035918201839004830284018301909452808352979a99988101979196509182019450925082915084018382808284375050604080516020601f89358b018035918201839004830284018301909452808352979a99988101979196509182019450925082915084018382808284375050604080516020601f89358b018035918201839004830284018301909452808352979a99988101979196509182019450925082915084018382808284375050604080516020601f89358b018035918201839004830284018301909452808352979a99988101979196509182019450925082915084018382808284375050604080516020601f89358b018035918201839004830284018301909452808352979a999881019791965091820194509250829150840183828082843750949750610db59650505050505050565b34801561062a57600080fd5b50610102610f4e565b606060088281548110151561064457fe5b6000918252602091829020600560079092020101805460408051601f60026000196101006001871615020190941693909304928301859004850281018501909152818152928301828280156106da5780601f106106af576101008083540402835291602001916106da565b820191906000526020600020905b8154815290600101906020018083116106bd57829003601f168201915b50505050509050919050565b60028054604080516020601f600019610100600187161502019094168590049384018190048102820181019092528281526060939092909183018282801561076f5780601f106107445761010080835404028352916020019161076f565b820191906000526020600020905b81548152906001019060200180831161075257829003601f168201915b505050505090505b90565b606060088281548110151561078b57fe5b6000918252602091829020600460079092020101805460408051601f60026000196101006001871615020190941693909304928301859004850281018501909152818152928301828280156106da5780601f106106af576101008083540402835291602001916106da565b606060088281548110151561080757fe5b6000918252602091829020600660079092020101805460408051601f60026000196101006001871615020190941693909304928301859004850281018501909152818152928301828280156106da5780601f106106af576101008083540402835291602001916106da565b606060088281548110151561088357fe5b6000918252602091829020600360079092020101805460408051601f60026000196101006001871615020190941693909304928301859004850281018501909152818152928301828280156106da5780601f106106af576101008083540402835291602001916106da565b60606008828154811015156108ff57fe5b90600052602060002090600702016001018054600181600116156101000203166002900480601f0160208091040260200160405190810160405280929190818152602001828054600181600116156101000203166002900480156106da5780601f106106af576101008083540402835291602001916106da565b60085490565b60078054604080516020601f600260001961010060018816150201909516949094049384018190048102820181019092528281526060939092909183018282801561076f5780601f106107445761010080835404028352916020019161076f565b60005473ffffffffffffffffffffffffffffffffffffffff1690565b60018054604080516020601f6002600019610100878916150201909516949094049384018190048102820181019092528281526060939092909183018282801561076f5780601f106107445761010080835404028352916020019161076f565b60048054604080516020601f600260001961010060018816150201909516949094049384018190048102820181019092528281526060939092909183018282801561076f5780601f106107445761010080835404028352916020019161076f565b600860e06040519081016040528073__Lib___________________________________6315706fdf8b6040518263ffffffff167c01000000000000000000000000000000000000000000000000000000000281526004018080602001828103825283818151815260200191508051906020019080838360005b83811015610b4e578181015183820152602001610b36565b50505050905090810190601f168015610b7b5780820380516001836020036101000a031916815260200191505b509250505060206040518083038186803b158015610b9857600080fd5b505af4158015610bac573d6000803e3d6000fd5b505050506040513d6020811015610bc257600080fd5b505173ffffffffffffffffffffffffffffffffffffffff908116825260208083018b9052604083018a9052606083018990526080830188905260a0830187905260c0909201859052835460018082018087556000968752958490208551600790930201805473ffffffffffffffffffffffffffffffffffffffff1916929093169190911782558383015180519293610c609392850192910190610faf565b5060408201518051610c7c916002840191602090910190610faf565b5060608201518051610c98916003840191602090910190610faf565b5060808201518051610cb4916004840191602090910190610faf565b5060a08201518051610cd0916005840191602090910190610faf565b5060c08201518051610cec916006840191602090910190610faf565b5050505050505050505050565b6000600882815481101515610d0a57fe5b600091825260209091206007909102015473ffffffffffffffffffffffffffffffffffffffff1692915050565b6060600882815481101515610d4857fe5b600091825260209182902060026007909202018101805460408051601f6000196101006001861615020190931694909404918201859004850284018501905280835291929091908301828280156106da5780601f106106af576101008083540402835291602001916106da565b6040517f15706fdf00000000000000000000000000000000000000000000000000000000815260206004820181815288516024840152885173__Lib___________________________________936315706fdf938b939283926044019185019080838360005b83811015610e33578181015183820152602001610e1b565b50505050905090810190601f168015610e605780820380516001836020036101000a031916815260200191505b509250505060206040518083038186803b158015610e7d57600080fd5b505af4158015610e91573d6000803e3d6000fd5b505050506040513d6020811015610ea757600080fd5b50516000805473ffffffffffffffffffffffffffffffffffffffff191673ffffffffffffffffffffffffffffffffffffffff9092169190911790558451610ef5906002906020880190610faf565b508351610f09906001906020870190610faf565b508251610f1d906003906020860190610faf565b508151610f31906004906020850190610faf565b508051610f45906007906020840190610faf565b50505050505050565b60038054604080516020601f600260001961010060018816150201909516949094049384018190048102820181019092528281526060939092909183018282801561076f5780601f106107445761010080835404028352916020019161076f565b828054600181600116156101000203166002900490600052602060002090601f016020900481019282601f10610ff057805160ff191683800117855561101d565b8280016001018555821561101d579182015b8281111561101d578251825591602001919060010190611002565b5061102992915061102d565b5090565b61077791905b8082111561102957600081556001016110335600a165627a7a723058204a4d7c0e3969eb6dc0ad24e61a24d624dd0d59b674579bd16b5546cf1a0b37fc0029",
  "source": "pragma solidity ^0.4.21;\r\nimport \"./Lib.sol\";\r\ncontract Person {\r\n    address addr;\r\n    string ID;\r\n    string name;\r\n    string registNum;\r\n    string birth;\r\n    string authDate;\r\n    address authOrgAddr;\r\n    int32 weight;\r\n    int32 height;\r\n    string gender;\r\n    MedicalRecord[] MRs; \r\n    int32 numOfMR;\r\n    \r\n    \r\n    constructor () public{}\r\n\r\n    function setPerson (string pAddr, string pName, string pID, string pRegistNum, string pBirth, string pGender) public\r\n    {\r\n        addr = Lib.stringToAddress(pAddr);\r\n        name = pName;\r\n        ID = pID;\r\n        registNum = pRegistNum;\r\n        birth = pBirth;\r\n        gender = pGender;\r\n        \r\n    }\r\n    struct MedicalRecord {\r\n        address medOrgAddr;\r\n        string treatDate;\r\n        string diseaseCode;\r\n        string depart;\r\n        string medStaff;\r\n        string clsData;\r\n        string attachKey;\r\n    }\r\n    \r\n    function appendMR(string pMedOrgAddr, string pTreatDate, \r\n                    string pDiseaseCode, string pDepart, string pMedStaff, \r\n                    string pClsData, string pAttachKey) public \r\n    {\r\n       // check require   \r\n       /*\r\n        require(pMedOrgAddr != 0x0);\r\n        require(keccak256(pTreatDate) !=  keccak256(\"\"));        \r\n        require(keccak256(pDiseaseCode) !=  keccak256(\"\"));     \r\n        require(keccak256(pDepart) !=  keccak256(\"\"));     \r\n        require(keccak256(pMedStaff) !=  keccak256(\"\"));     \r\n        require(keccak256(pClsData) !=  keccak256(\"\"));     \r\n        require(keccak256(pAttachKey) !=  keccak256(\"\"));     \r\n        */\r\n        \r\n        MRs.push(MedicalRecord(Lib.stringToAddress(pMedOrgAddr), pTreatDate, pDiseaseCode, pDepart, pMedStaff, pClsData, pAttachKey));\r\n    }\r\n    \r\n/*\r\n    function getPersonRecord() public constant returns(uint8,string) {\r\n        string memory sResult;\r\n\r\n        sResult = Lib.mergeStrings(sResult, Lib.addressToString(addr));\r\n        sResult = Lib.mergeStrings(sResult, name);\r\n        sResult = Lib.mergeStrings(sResult, ID);\r\n        sResult = Lib.mergeStrings(sResult, registNum);\r\n        sResult = Lib.mergeStrings(sResult, birth);\r\n        sResult = Lib.mergeStrings(sResult, authDate);\r\n\r\n        return ( 1,  sResult);\r\n    }\r\n\r\n*/\r\n    function getAddr() public constant returns(address){return addr;}\r\n    function getName() public constant returns(string){return name;}\r\n    function getID() public constant returns(string){return ID;}\r\n    function getRegistNum() public constant returns(string){return registNum;}\r\n    function getBirth() public constant returns(string){return birth;}\r\n    function getGender() public constant returns(string){return gender;}\r\n    \r\n    function getMRLength() public constant returns(uint){return MRs.length;}\r\n\r\n    function getMRtreatDate(uint idx) public constant returns(string){return MRs[idx].treatDate;}\r\n    function getMRdiseaseCode(uint idx) public constant returns(string){return MRs[idx].diseaseCode;}\r\n    function getMRdepart(uint idx) public constant returns(string){return MRs[idx].depart;}\r\n    function getMRmedStaff(uint idx) public constant returns(string){return MRs[idx].medStaff;}\r\n    function getMRclsData(uint idx) public constant returns(string){return MRs[idx].clsData;}\r\n    function getMRattachKey(uint idx) public constant returns(string){return MRs[idx].attachKey;}\r\n/*\r\n\r\n    function getMRtreatDate(uint idx) public constant returns(byte[100]){return Lib.strToByte(MRs[idx].treatDate);}\r\n    function getMRdiseaseCode(uint idx) public constant returns(byte[100]){return Lib.strToByte(MRs[idx].diseaseCode);}\r\n    function getMRdepart(uint idx) public constant returns(byte[100]){return Lib.strToByte(MRs[idx].depart);}\r\n    function getMRmedStaff(uint idx) public constant returns(byte[100]){return Lib.strToByte(MRs[idx].medStaff);}\r\n    function getMRclsData(uint idx) public constant returns(byte[100]){return Lib.strToByte(MRs[idx].clsData);}\r\n    function getMRattachKey(uint idx) public constant returns(byte[100]){return Lib.strToByte(MRs[idx].attachKey);}\r\n*/\r\n\r\n    \r\n    function getMRmedOrgAddr(uint idx) public constant returns(address){return MRs[idx].medOrgAddr;}\r\n    \r\n\r\n}",
  "sourcePath": "C:\\truffle\\ethclaim\\contracts\\Person.sol",
  "compiler": {
    "name": "solc",
    "version": "0.4.24+commit.e67f0147.Emscripten.clang"
  },
  "schemaVersion": "2.0.1",
  "updatedAt": "2018-12-23T23:50:19.129Z"
}