{
  "contractName": "PHR",
  "abi": [
    {
      "anonymous": false,
      "inputs": [
        {
          "indexed": false,
          "name": "str",
          "type": "string"
        }
      ],
      "name": "log",
      "type": "event"
    },
    {
      "anonymous": false,
      "inputs": [
        {
          "indexed": false,
          "name": "str",
          "type": "string"
        }
      ],
      "name": "message",
      "type": "event"
    },
    {
      "constant": false,
      "inputs": [],
      "name": "logTest",
      "outputs": [],
      "payable": false,
      "stateMutability": "nonpayable",
      "type": "function"
    },
    {
      "constant": false,
      "inputs": [
        {
          "name": "pAddr",
          "type": "string"
        },
        {
          "name": "pName",
          "type": "string"
        },
        {
          "name": "pID",
          "type": "string"
        },
        {
          "name": "pRegistNum",
          "type": "string"
        },
        {
          "name": "pBirth",
          "type": "string"
        },
        {
          "name": "pGender",
          "type": "string"
        }
      ],
      "name": "appendPerson",
      "outputs": [],
      "payable": false,
      "stateMutability": "nonpayable",
      "type": "function"
    },
    {
      "constant": false,
      "inputs": [
        {
          "name": "pAddr",
          "type": "string"
        },
        {
          "name": "pName",
          "type": "string"
        },
        {
          "name": "pPurpose",
          "type": "string"
        }
      ],
      "name": "appendOrg",
      "outputs": [],
      "payable": false,
      "stateMutability": "nonpayable",
      "type": "function"
    },
    {
      "constant": true,
      "inputs": [
        {
          "name": "pAddr",
          "type": "string"
        }
      ],
      "name": "getPerson",
      "outputs": [
        {
          "name": "",
          "type": "address"
        }
      ],
      "payable": false,
      "stateMutability": "view",
      "type": "function"
    },
    {
      "constant": true,
      "inputs": [
        {
          "name": "pAddr",
          "type": "string"
        }
      ],
      "name": "getPersonIdx",
      "outputs": [
        {
          "name": "",
          "type": "uint32"
        }
      ],
      "payable": false,
      "stateMutability": "view",
      "type": "function"
    },
    {
      "constant": true,
      "inputs": [
        {
          "name": "pRegNum",
          "type": "string"
        },
        {
          "name": "pName",
          "type": "string"
        },
        {
          "name": "pBirth",
          "type": "string"
        }
      ],
      "name": "getPersonRecord",
      "outputs": [
        {
          "name": "",
          "type": "uint8"
        },
        {
          "name": "",
          "type": "string"
        }
      ],
      "payable": false,
      "stateMutability": "view",
      "type": "function"
    },
    {
      "constant": true,
      "inputs": [
        {
          "name": "orgAddr",
          "type": "string"
        }
      ],
      "name": "getOrg",
      "outputs": [
        {
          "name": "",
          "type": "address"
        }
      ],
      "payable": false,
      "stateMutability": "view",
      "type": "function"
    },
    {
      "constant": false,
      "inputs": [
        {
          "name": "pOrgAddr",
          "type": "string"
        },
        {
          "name": "pDept",
          "type": "string"
        }
      ],
      "name": "appendOrgDept",
      "outputs": [],
      "payable": false,
      "stateMutability": "nonpayable",
      "type": "function"
    },
    {
      "constant": false,
      "inputs": [
        {
          "name": "pOrgAddr",
          "type": "string"
        },
        {
          "name": "pStaff",
          "type": "string"
        }
      ],
      "name": "appendOrgStaff",
      "outputs": [],
      "payable": false,
      "stateMutability": "nonpayable",
      "type": "function"
    },
    {
      "constant": false,
      "inputs": [
        {
          "name": "pAddr",
          "type": "string"
        },
        {
          "name": "pMedOrgAddr",
          "type": "string"
        },
        {
          "name": "pTreatDate",
          "type": "string"
        },
        {
          "name": "pDiseaseCode",
          "type": "string"
        },
        {
          "name": "pDepart",
          "type": "string"
        },
        {
          "name": "pMedStaff",
          "type": "string"
        },
        {
          "name": "pClsData",
          "type": "string"
        },
        {
          "name": "pAttachKey",
          "type": "string"
        }
      ],
      "name": "appendMR",
      "outputs": [],
      "payable": false,
      "stateMutability": "nonpayable",
      "type": "function"
    },
    {
      "constant": false,
      "inputs": [
        {
          "name": "pOrgAddr",
          "type": "string"
        },
        {
          "name": "pPerAddr",
          "type": "string"
        },
        {
          "name": "pPath",
          "type": "string"
        },
        {
          "name": "pAcqDate",
          "type": "string"
        },
        {
          "name": "pEndDate",
          "type": "string"
        }
      ],
      "name": "appendAcqPI",
      "outputs": [],
      "payable": false,
      "stateMutability": "nonpayable",
      "type": "function"
    },
    {
      "constant": true,
      "inputs": [
        {
          "name": "pPerAddr",
          "type": "string"
        }
      ],
      "name": "getMRLength",
      "outputs": [
        {
          "name": "",
          "type": "uint256"
        }
      ],
      "payable": false,
      "stateMutability": "view",
      "type": "function"
    },
    {
      "constant": true,
      "inputs": [
        {
          "name": "pPsIdx",
          "type": "uint256"
        },
        {
          "name": "pMRIdx",
          "type": "uint256"
        }
      ],
      "name": "getMRmedOrgAddr",
      "outputs": [
        {
          "name": "",
          "type": "uint256"
        },
        {
          "name": "",
          "type": "address"
        }
      ],
      "payable": false,
      "stateMutability": "view",
      "type": "function"
    },
    {
      "constant": true,
      "inputs": [
        {
          "name": "pPsIdx",
          "type": "uint256"
        },
        {
          "name": "pMRIdx",
          "type": "uint256"
        }
      ],
      "name": "getMRtreatDate",
      "outputs": [
        {
          "name": "",
          "type": "uint256"
        },
        {
          "name": "",
          "type": "string"
        }
      ],
      "payable": false,
      "stateMutability": "view",
      "type": "function"
    },
    {
      "constant": true,
      "inputs": [
        {
          "name": "pPsIdx",
          "type": "uint256"
        },
        {
          "name": "pMRIdx",
          "type": "uint256"
        }
      ],
      "name": "getMRdiseaseCode",
      "outputs": [
        {
          "name": "",
          "type": "uint256"
        },
        {
          "name": "",
          "type": "string"
        }
      ],
      "payable": false,
      "stateMutability": "view",
      "type": "function"
    },
    {
      "constant": true,
      "inputs": [
        {
          "name": "pPsIdx",
          "type": "uint256"
        },
        {
          "name": "pMRIdx",
          "type": "uint256"
        }
      ],
      "name": "getMRdepart",
      "outputs": [
        {
          "name": "",
          "type": "uint256"
        },
        {
          "name": "",
          "type": "string"
        }
      ],
      "payable": false,
      "stateMutability": "view",
      "type": "function"
    },
    {
      "constant": true,
      "inputs": [
        {
          "name": "pPsIdx",
          "type": "uint256"
        },
        {
          "name": "pMRIdx",
          "type": "uint256"
        }
      ],
      "name": "getMRmedStaff",
      "outputs": [
        {
          "name": "",
          "type": "uint256"
        },
        {
          "name": "",
          "type": "string"
        }
      ],
      "payable": false,
      "stateMutability": "view",
      "type": "function"
    },
    {
      "constant": true,
      "inputs": [
        {
          "name": "pPsIdx",
          "type": "uint256"
        },
        {
          "name": "pMRIdx",
          "type": "uint256"
        }
      ],
      "name": "getMRclsData",
      "outputs": [
        {
          "name": "",
          "type": "uint256"
        },
        {
          "name": "",
          "type": "string"
        }
      ],
      "payable": false,
      "stateMutability": "view",
      "type": "function"
    },
    {
      "constant": true,
      "inputs": [
        {
          "name": "pPsIdx",
          "type": "uint256"
        },
        {
          "name": "pMRIdx",
          "type": "uint256"
        }
      ],
      "name": "getMRattachKey",
      "outputs": [
        {
          "name": "",
          "type": "uint256"
        },
        {
          "name": "",
          "type": "string"
        }
      ],
      "payable": false,
      "stateMutability": "view",
      "type": "function"
    },
    {
      "constant": true,
      "inputs": [
        {
          "name": "pPsIdx",
          "type": "uint256"
        },
        {
          "name": "pMRIdx",
          "type": "uint256"
        }
      ],
      "name": "getMRmedOrgName",
      "outputs": [
        {
          "name": "",
          "type": "uint256"
        },
        {
          "name": "",
          "type": "string"
        }
      ],
      "payable": false,
      "stateMutability": "view",
      "type": "function"
    }
  ],
  "bytecode": "0x608060405234801561001057600080fd5b50615dde806100206000396000f3006080604052600436106100f85763ffffffff60e060020a600035041663062fbbb581146100fd5780630a1084a6146101975780631361c394146103285780631bf992e11461033d5780632c2226ea146103585780633d234b2f14610373578063468c51851461049057806347f0d0ab146105275780634c55da16146105425780635f99bef3146105b45780636421ae861461061f578063696f541c1461063a5780638283e56d146106af5780638f3d209614610800578063a855295414610897578063a8565f68146108b2578063ad191e9814610987578063e3164394146109c3578063e907247c146109de578063f71c4ded14610a37575b600080fd5b34801561010957600080fd5b50610118600435602435610c42565b6040518083815260200180602001828103825283818151815260200191508051906020019080838360005b8381101561015b578181015183820152602001610143565b50505050905090810190601f1680156101885780820380516001836020036101000a031916815260200191505b50935050505060405180910390f35b3480156101a357600080fd5b506040805160206004803580820135601f810184900484028501840190955284845261032694369492936024939284019190819084018382808284375050604080516020601f89358b018035918201839004830284018301909452808352979a99988101979196509182019450925082915084018382808284375050604080516020601f89358b018035918201839004830284018301909452808352979a99988101979196509182019450925082915084018382808284375050604080516020601f89358b018035918201839004830284018301909452808352979a99988101979196509182019450925082915084018382808284375050604080516020601f89358b018035918201839004830284018301909452808352979a99988101979196509182019450925082915084018382808284375050604080516020601f89358b018035918201839004830284018301909452808352979a999881019791965091820194509250829150840183828082843750949750610d509650505050505050565b005b34801561033457600080fd5b506103266111b1565b34801561034957600080fd5b50610118600435602435611201565b34801561036457600080fd5b5061011860043560243561127d565b34801561037f57600080fd5b506040805160206004803580820135601f810184900484028501840190955284845261044894369492936024939284019190819084018382808284375050604080516020601f89358b018035918201839004830284018301909452808352979a99988101979196509182019450925082915084018382808284375050604080516020601f89358b018035918201839004830284018301909452808352979a9998810197919650918201945092508291508401838280828437509497506112f99650505050505050565b604051808360ff1660ff16815260200180602001828103825283818151815260200191508051906020019080838360008381101561015b578181015183820152602001610143565b34801561049c57600080fd5b506040805160206004803580820135601f810184900484028501840190955284845261032694369492936024939284019190819084018382808284375050604080516020601f89358b018035918201839004830284018301909452808352979a999881019791965091820194509250829150840183828082843750949750612ac19650505050505050565b34801561053357600080fd5b50610118600435602435612c1b565b34801561054e57600080fd5b506040805160206004803580820135601f810184900484028501840190955284845261059b943694929360249392840191908190840183828082843750949750612e9d9650505050505050565b6040805163ffffffff9092168252519081900360200190f35b3480156105c057600080fd5b506040805160206004803580820135601f810184900484028501840190955284845261060d9436949293602493928401919081908401838280828437509497506130719650505050505050565b60408051918252519081900360200190f35b34801561062b57600080fd5b506101186004356024356130eb565b34801561064657600080fd5b506040805160206004803580820135601f81018490048402850184019095528484526106939436949293602493928401919081908401838280828437509497506131679650505050505050565b60408051600160a060020a039092168252519081900360200190f35b3480156106bb57600080fd5b506040805160206004803580820135601f810184900484028501840190955284845261032694369492936024939284019190819084018382808284375050604080516020601f89358b018035918201839004830284018301909452808352979a99988101979196509182019450925082915084018382808284375050604080516020601f89358b018035918201839004830284018301909452808352979a99988101979196509182019450925082915084018382808284375050604080516020601f89358b018035918201839004830284018301909452808352979a99988101979196509182019450925082915084018382808284375050604080516020601f89358b018035918201839004830284018301909452808352979a99988101979196509182019450925082915084018382808284375094975061334b9650505050505050565b34801561080c57600080fd5b506040805160206004803580820135601f810184900484028501840190955284845261032694369492936024939284019190819084018382808284375050604080516020601f89358b018035918201839004830284018301909452808352979a9998810197919650918201945092508291508401838280828437509497506135dd9650505050505050565b3480156108a357600080fd5b50610118600435602435613691565b3480156108be57600080fd5b506040805160206004803580820135601f810184900484028501840190955284845261032694369492936024939284019190819084018382808284375050604080516020601f89358b018035918201839004830284018301909452808352979a99988101979196509182019450925082915084018382808284375050604080516020601f89358b018035918201839004830284018301909452808352979a99988101979196509182019450925082915084018382808284375094975061370d9650505050505050565b34801561099357600080fd5b506109a26004356024356139b1565b60408051928352600160a060020a0390911660208301528051918290030190f35b3480156109cf57600080fd5b50610118600435602435613a61565b3480156109ea57600080fd5b506040805160206004803580820135601f8101849004840285018401909552848452610693943694929360249392840191908190840183828082843750949750613add9650505050505050565b348015610a4357600080fd5b506040805160206004803580820135601f810184900484028501840190955284845261032694369492936024939284019190819084018382808284375050604080516020601f89358b018035918201839004830284018301909452808352979a99988101979196509182019450925082915084018382808284375050604080516020601f89358b018035918201839004830284018301909452808352979a99988101979196509182019450925082915084018382808284375050604080516020601f89358b018035918201839004830284018301909452808352979a99988101979196509182019450925082915084018382808284375050604080516020601f89358b018035918201839004830284018301909452808352979a99988101979196509182019450925082915084018382808284375050604080516020601f89358b018035918201839004830284018301909452808352979a99988101979196509182019450925082915084018382808284375050604080516020601f89358b018035918201839004830284018301909452808352979a99988101979196509182019450925082915084018382808284375050604080516020601f89358b018035918201839004830284018301909452808352979a999881019791965091820194509250829150840183828082843750949750613ca59650505050505050565b6000606082600085815481101515610c5657fe5b6000918252602082200154604080517fe2c4206a000000000000000000000000000000000000000000000000000000008152600481018890529051600160a060020a039092169263e2c4206a9260248084019382900301818387803b158015610cbe57600080fd5b505af1158015610cd2573d6000803e3d6000fd5b505050506040513d6000823e601f3d908101601f191682016040526020811015610cfb57600080fd5b810190808051640100000000811115610d1357600080fd5b82016020810184811115610d2657600080fd5b8151640100000000811182820187101715610d4057600080fd5b5094999098509650505050505050565b6040805160208082526010908201527f5048522e617070656e64506572736f6e00000000000000000000000000000000818301529051600091600080516020615d53833981519152919081900360600190a1600080516020615d53833981519152876040518080602001828103825283818151815260200191508051906020019080838360005b83811015610def578181015183820152602001610dd7565b50505050905090810190601f168015610e1c5780820380516001836020036101000a031916815260200191505b509250505060405180910390a1610e31614024565b604051809103906000f080158015610e4d573d6000803e3d6000fd5b50905080600160a060020a031663e4f7919b8888888888886040518763ffffffff1660e060020a0281526004018080602001806020018060200180602001806020018060200187810387528d818151815260200191508051906020019080838360005b83811015610ec8578181015183820152602001610eb0565b50505050905090810190601f168015610ef55780820380516001836020036101000a031916815260200191505b5087810386528c5181528c516020918201918e019080838360005b83811015610f28578181015183820152602001610f10565b50505050905090810190601f168015610f555780820380516001836020036101000a031916815260200191505b5087810385528b5181528b516020918201918d019080838360005b83811015610f88578181015183820152602001610f70565b50505050905090810190601f168015610fb55780820380516001836020036101000a031916815260200191505b5087810384528a5181528a516020918201918c019080838360005b83811015610fe8578181015183820152602001610fd0565b50505050905090810190601f1680156110155780820380516001836020036101000a031916815260200191505b5087810383528951815289516020918201918b019080838360005b83811015611048578181015183820152602001611030565b50505050905090810190601f1680156110755780820380516001836020036101000a031916815260200191505b5087810382528851815288516020918201918a019080838360005b838110156110a8578181015183820152602001611090565b50505050905090810190601f1680156110d55780820380516001836020036101000a031916815260200191505b509c50505050505050505050505050600060405180830381600087803b1580156110fe57600080fd5b505af1158015611112573d6000803e3d6000fd5b5050600080546001810182559080527f290decd9548b62a8d60345a988386fc84ba6bc95484008f6362f93160ef3e56301805473ffffffffffffffffffffffffffffffffffffffff1916600160a060020a0385161790555050604080516020808252600790820152600080516020615d93833981519152818301529051600080516020615d73833981519152916060908290030190a150505050505050565b6040805160208082526007908201527f6c6f675465737400000000000000000000000000000000000000000000000000818301529051600080516020615d538339815191529181900360600190a1565b600060608260008581548110151561121557fe5b6000918252602082200154604080517f5b4f9621000000000000000000000000000000000000000000000000000000008152600481018890529051600160a060020a0390921692635b4f96219260248084019382900301818387803b158015610cbe57600080fd5b600060608260008581548110151561129157fe5b6000918252602082200154604080517f1770c2e9000000000000000000000000000000000000000000000000000000008152600481018890529051600160a060020a0390921692631770c2e99260248084019382900301818387803b158015610cbe57600080fd5b60006060600180808484815b60005460ff82161015612ab1576040518b517fc5d2460186f7233c927e7db2dcc703c0e500b653ca82273b7bfad8045d85a470918d91819060208401908083835b602083106113655780518252601f199092019160209182019101611346565b6001836020036101000a03801982511681845116808217855250505050505090500191505060405180910390206000191614156113a55760019550611574565b8a6040518082805190602001908083835b602083106113d55780518252601f1990920191602091820191016113b6565b5181516020939093036101000a6000190180199091169216919091179052604051920182900390912060008054919450925060ff85169150811061141557fe5b6000918252602082200154604080517ff2188a840000000000000000000000000000000000000000000000000000000081529051600160a060020a039092169263f2188a849260048084019382900301818387803b15801561147657600080fd5b505af115801561148a573d6000803e3d6000fd5b505050506040513d6000823e601f3d908101601f1916820160405260208110156114b357600080fd5b8101908080516401000000008111156114cb57600080fd5b820160208101848111156114de57600080fd5b81516401000000008111828201871017156114f857600080fd5b50509291905050506040518082805190602001908083835b6020831061152f5780518252601f199092019160209182019101611510565b6001836020036101000a038019825116818451168082178552505050505050905001915050604051809103902060001916141561156f5760019550611574565b600095505b6040518a517fc5d2460186f7233c927e7db2dcc703c0e500b653ca82273b7bfad8045d85a470918c91819060208401908083835b602083106115c75780518252601f1990920191602091820191016115a8565b6001836020036101000a038019825116818451168082178552505050505050905001915050604051809103902060001916141561160757600194506117d6565b896040518082805190602001908083835b602083106116375780518252601f199092019160209182019101611618565b5181516020939093036101000a6000190180199091169216919091179052604051920182900390912060008054919450925060ff85169150811061167757fe5b6000918252602082200154604080517f17d7de7c0000000000000000000000000000000000000000000000000000000081529051600160a060020a03909216926317d7de7c9260048084019382900301818387803b1580156116d857600080fd5b505af11580156116ec573d6000803e3d6000fd5b505050506040513d6000823e601f3d908101601f19168201604052602081101561171557600080fd5b81019080805164010000000081111561172d57600080fd5b8201602081018481111561174057600080fd5b815164010000000081118282018710171561175a57600080fd5b50509291905050506040518082805190602001908083835b602083106117915780518252601f199092019160209182019101611772565b6001836020036101000a03801982511681845116808217855250505050505090500191505060405180910390206000191614156117d157600194506117d6565b600094505b60405189517fc5d2460186f7233c927e7db2dcc703c0e500b653ca82273b7bfad8045d85a470918b91819060208401908083835b602083106118295780518252601f19909201916020918201910161180a565b6001836020036101000a03801982511681845116808217855250505050505090500191505060405180910390206000191614156118695760019350611a38565b886040518082805190602001908083835b602083106118995780518252601f19909201916020918201910161187a565b5181516020939093036101000a6000190180199091169216919091179052604051920182900390912060008054919450925060ff8516915081106118d957fe5b6000918252602082200154604080517fd12a7f290000000000000000000000000000000000000000000000000000000081529051600160a060020a039092169263d12a7f299260048084019382900301818387803b15801561193a57600080fd5b505af115801561194e573d6000803e3d6000fd5b505050506040513d6000823e601f3d908101601f19168201604052602081101561197757600080fd5b81019080805164010000000081111561198f57600080fd5b820160208101848111156119a257600080fd5b81516401000000008111828201871017156119bc57600080fd5b50509291905050506040518082805190602001908083835b602083106119f35780518252601f1990920191602091820191016119d4565b6001836020036101000a0380198251168184511680821785525050505050509050019150506040518091039020600019161415611a335760019350611a38565b600093505b858015611a425750845b8015611a4b5750835b15612aa95773__Lib___________________________________63ec5532a38373__Lib___________________________________635e57966d60008660ff16815481101515611a9757fe5b9060005260206000200160009054906101000a9004600160a060020a0316600160a060020a031663a74c2bb66040518163ffffffff1660e060020a028152600401602060405180830381600087803b158015611af257600080fd5b505af1158015611b06573d6000803e3d6000fd5b505050506040513d6020811015611b1c57600080fd5b50516040805160e060020a63ffffffff8516028152600160a060020a039092166004830152516024808301926000929190829003018186803b158015611b6157600080fd5b505af4158015611b75573d6000803e3d6000fd5b505050506040513d6000823e601f3d908101601f191682016040526020811015611b9e57600080fd5b810190808051640100000000811115611bb657600080fd5b82016020810184811115611bc957600080fd5b8151640100000000811182820187101715611be357600080fd5b50509291905050506040518363ffffffff1660e060020a028152600401808060200180602001838103835285818151815260200191508051906020019080838360005b83811015611c3e578181015183820152602001611c26565b50505050905090810190601f168015611c6b5780820380516001836020036101000a031916815260200191505b50838103825284518152845160209182019186019080838360005b83811015611c9e578181015183820152602001611c86565b50505050905090810190601f168015611ccb5780820380516001836020036101000a031916815260200191505b5094505050505060006040518083038186803b158015611cea57600080fd5b505af4158015611cfe573d6000803e3d6000fd5b505050506040513d6000823e601f3d908101601f191682016040526020811015611d2757600080fd5b810190808051640100000000811115611d3f57600080fd5b82016020810184811115611d5257600080fd5b8151640100000000811182820187101715611d6c57600080fd5b5050929190505050915073__Lib___________________________________63ec5532a38360008460ff16815481101515611da357fe5b6000918252602082200154604080517f17d7de7c0000000000000000000000000000000000000000000000000000000081529051600160a060020a03909216926317d7de7c9260048084019382900301818387803b158015611e0457600080fd5b505af1158015611e18573d6000803e3d6000fd5b505050506040513d6000823e601f3d908101601f191682016040526020811015611e4157600080fd5b810190808051640100000000811115611e5957600080fd5b82016020810184811115611e6c57600080fd5b8151640100000000811182820187101715611e8657600080fd5b50509291905050506040518363ffffffff1660e060020a028152600401808060200180602001838103835285818151815260200191508051906020019080838360005b83811015611ee1578181015183820152602001611ec9565b50505050905090810190601f168015611f0e5780820380516001836020036101000a031916815260200191505b50838103825284518152845160209182019186019080838360005b83811015611f41578181015183820152602001611f29565b50505050905090810190601f168015611f6e5780820380516001836020036101000a031916815260200191505b5094505050505060006040518083038186803b158015611f8d57600080fd5b505af4158015611fa1573d6000803e3d6000fd5b505050506040513d6000823e601f3d908101601f191682016040526020811015611fca57600080fd5b810190808051640100000000811115611fe257600080fd5b82016020810184811115611ff557600080fd5b815164010000000081118282018710171561200f57600080fd5b5050929190505050915073__Lib___________________________________63ec5532a38360008460ff1681548110151561204657fe5b6000918252602082200154604080517fab9dbd070000000000000000000000000000000000000000000000000000000081529051600160a060020a039092169263ab9dbd079260048084019382900301818387803b1580156120a757600080fd5b505af11580156120bb573d6000803e3d6000fd5b505050506040513d6000823e601f3d908101601f1916820160405260208110156120e457600080fd5b8101908080516401000000008111156120fc57600080fd5b8201602081018481111561210f57600080fd5b815164010000000081118282018710171561212957600080fd5b50509291905050506040518363ffffffff1660e060020a028152600401808060200180602001838103835285818151815260200191508051906020019080838360005b8381101561218457818101518382015260200161216c565b50505050905090810190601f1680156121b15780820380516001836020036101000a031916815260200191505b50838103825284518152845160209182019186019080838360005b838110156121e45781810151838201526020016121cc565b50505050905090810190601f1680156122115780820380516001836020036101000a031916815260200191505b5094505050505060006040518083038186803b15801561223057600080fd5b505af4158015612244573d6000803e3d6000fd5b505050506040513d6000823e601f3d908101601f19168201604052602081101561226d57600080fd5b81019080805164010000000081111561228557600080fd5b8201602081018481111561229857600080fd5b81516401000000008111828201871017156122b257600080fd5b5050929190505050915073__Lib___________________________________63ec5532a38360008460ff168154811015156122e957fe5b6000918252602082200154604080517ff2188a840000000000000000000000000000000000000000000000000000000081529051600160a060020a039092169263f2188a849260048084019382900301818387803b15801561234a57600080fd5b505af115801561235e573d6000803e3d6000fd5b505050506040513d6000823e601f3d908101601f19168201604052602081101561238757600080fd5b81019080805164010000000081111561239f57600080fd5b820160208101848111156123b257600080fd5b81516401000000008111828201871017156123cc57600080fd5b50509291905050506040518363ffffffff1660e060020a028152600401808060200180602001838103835285818151815260200191508051906020019080838360005b8381101561242757818101518382015260200161240f565b50505050905090810190601f1680156124545780820380516001836020036101000a031916815260200191505b50838103825284518152845160209182019186019080838360005b8381101561248757818101518382015260200161246f565b50505050905090810190601f1680156124b45780820380516001836020036101000a031916815260200191505b5094505050505060006040518083038186803b1580156124d357600080fd5b505af41580156124e7573d6000803e3d6000fd5b505050506040513d6000823e601f3d908101601f19168201604052602081101561251057600080fd5b81019080805164010000000081111561252857600080fd5b8201602081018481111561253b57600080fd5b815164010000000081118282018710171561255557600080fd5b5050929190505050915073__Lib___________________________________63ec5532a38360008460ff1681548110151561258c57fe5b6000918252602082200154604080517fd12a7f290000000000000000000000000000000000000000000000000000000081529051600160a060020a039092169263d12a7f299260048084019382900301818387803b1580156125ed57600080fd5b505af1158015612601573d6000803e3d6000fd5b505050506040513d6000823e601f3d908101601f19168201604052602081101561262a57600080fd5b81019080805164010000000081111561264257600080fd5b8201602081018481111561265557600080fd5b815164010000000081118282018710171561266f57600080fd5b50509291905050506040518363ffffffff1660e060020a028152600401808060200180602001838103835285818151815260200191508051906020019080838360005b838110156126ca5781810151838201526020016126b2565b50505050905090810190601f1680156126f75780820380516001836020036101000a031916815260200191505b50838103825284518152845160209182019186019080838360005b8381101561272a578181015183820152602001612712565b50505050905090810190601f1680156127575780820380516001836020036101000a031916815260200191505b5094505050505060006040518083038186803b15801561277657600080fd5b505af415801561278a573d6000803e3d6000fd5b505050506040513d6000823e601f3d908101601f1916820160405260208110156127b357600080fd5b8101908080516401000000008111156127cb57600080fd5b820160208101848111156127de57600080fd5b81516401000000008111828201871017156127f857600080fd5b5050929190505050915073__Lib___________________________________63ec5532a38360008460ff1681548110151561282f57fe5b6000918252602082200154604080517f7c38a8c30000000000000000000000000000000000000000000000000000000081529051600160a060020a0390921692637c38a8c39260048084019382900301818387803b15801561289057600080fd5b505af11580156128a4573d6000803e3d6000fd5b505050506040513d6000823e601f3d908101601f1916820160405260208110156128cd57600080fd5b8101908080516401000000008111156128e557600080fd5b820160208101848111156128f857600080fd5b815164010000000081118282018710171561291257600080fd5b50509291905050506040518363ffffffff1660e060020a028152600401808060200180602001838103835285818151815260200191508051906020019080838360005b8381101561296d578181015183820152602001612955565b50505050905090810190601f16801561299a5780820380516001836020036101000a031916815260200191505b50838103825284518152845160209182019186019080838360005b838110156129cd5781810151838201526020016129b5565b50505050905090810190601f1680156129fa5780820380516001836020036101000a031916815260200191505b5094505050505060006040518083038186803b158015612a1957600080fd5b505af4158015612a2d573d6000803e3d6000fd5b505050506040513d6000823e601f3d908101601f191682016040526020811015612a5657600080fd5b810190808051640100000000811115612a6e57600080fd5b82016020810184811115612a8157600080fd5b8151640100000000811182820187101715612a9b57600080fd5b505060019096019594505050505b600101611305565b5090999098509650505050505050565b6040805160208082526012908201527f5048522e617070656e644f726753746166660000000000000000000000000000818301529051600080516020615d538339815191529181900360600190a1612b1882613167565b600160a060020a0316634fd26848826040518263ffffffff1660e060020a0281526004018080602001828103825283818151815260200191508051906020019080838360005b83811015612b76578181015183820152602001612b5e565b50505050905090810190601f168015612ba35780820380516001836020036101000a031916815260200191505b5092505050600060405180830381600087803b158015612bc257600080fd5b505af1158015612bd6573d6000803e3d6000fd5b5050604080516020808252600790820152600080516020615d93833981519152818301529051600080516020615d738339815191529350908190036060019150a15050565b6000606060006060600086815481101515612c3257fe5b9060005260206000200160009054906101000a9004600160a060020a0316600160a060020a031663de2bec99866040518263ffffffff1660e060020a02815260040180828152602001915050602060405180830381600087803b158015612c9857600080fd5b505af1158015612cac573d6000803e3d6000fd5b505050506040513d6020811015612cc257600080fd5b5051604080517f5e57966d000000000000000000000000000000000000000000000000000000008152600160a060020a03831660048201529051919350612dcd9173__Lib___________________________________91635e57966d916024808301926000929190829003018186803b158015612d3e57600080fd5b505af4158015612d52573d6000803e3d6000fd5b505050506040513d6000823e601f3d908101601f191682016040526020811015612d7b57600080fd5b810190808051640100000000811115612d9357600080fd5b82016020810184811115612da657600080fd5b8151640100000000811182820187101715612dc057600080fd5b5050929190505050613167565b600160a060020a03166317d7de7c6040518163ffffffff1660e060020a028152600401600060405180830381600087803b158015612e0a57600080fd5b505af1158015612e1e573d6000803e3d6000fd5b505050506040513d6000823e601f3d908101601f191682016040526020811015612e4757600080fd5b810190808051640100000000811115612e5f57600080fd5b82016020810184811115612e7257600080fd5b8151640100000000811182820187101715612e8c57600080fd5b50989a909950975050505050505050565b6000805b60005463ffffffff8216101561306b576040517f15706fdf00000000000000000000000000000000000000000000000000000000815260206004820181815285516024840152855173__Lib___________________________________936315706fdf9388939283926044019185019080838360005b83811015612f2f578181015183820152602001612f17565b50505050905090810190601f168015612f5c5780820380516001836020036101000a031916815260200191505b509250505060206040518083038186803b158015612f7957600080fd5b505af4158015612f8d573d6000803e3d6000fd5b505050506040513d6020811015612fa357600080fd5b505160008054600160a060020a039092169163ffffffff8416908110612fc557fe5b9060005260206000200160009054906101000a9004600160a060020a0316600160a060020a031663a74c2bb66040518163ffffffff1660e060020a028152600401602060405180830381600087803b15801561302057600080fd5b505af1158015613034573d6000803e3d6000fd5b505050506040513d602081101561304a57600080fd5b5051600160a060020a031614156130635780915061306b565b600101612ea1565b50919050565b600061307c82613add565b600160a060020a03166360bfdd246040518163ffffffff1660e060020a028152600401602060405180830381600087803b1580156130b957600080fd5b505af11580156130cd573d6000803e3d6000fd5b505050506040513d60208110156130e357600080fd5b505192915050565b60006060826000858154811015156130ff57fe5b6000918252602082200154604080517f19e50944000000000000000000000000000000000000000000000000000000008152600481018890529051600160a060020a03909216926319e509449260248084019382900301818387803b158015610cbe57600080fd5b6000805b60015481101561306b576040517f15706fdf00000000000000000000000000000000000000000000000000000000815260206004820181815285516024840152855173__Lib___________________________________936315706fdf9388939283926044019185019080838360005b838110156131f35781810151838201526020016131db565b50505050905090810190601f1680156132205780820380516001836020036101000a031916815260200191505b509250505060206040518083038186803b15801561323d57600080fd5b505af4158015613251573d6000803e3d6000fd5b505050506040513d602081101561326757600080fd5b505160018054600160a060020a03909216918390811061328357fe5b9060005260206000200160009054906101000a9004600160a060020a0316600160a060020a031663a74c2bb66040518163ffffffff1660e060020a028152600401602060405180830381600087803b1580156132de57600080fd5b505af11580156132f2573d6000803e3d6000fd5b505050506040513d602081101561330857600080fd5b5051600160a060020a0316141561334357600180548290811061332757fe5b600091825260209091200154600160a060020a0316915061306b565b60010161316b565b604080516020808252600f908201527f5048522e617070656e6441637150490000000000000000000000000000000000818301529051600080516020615d538339815191529181900360600190a16133a285613167565b600160a060020a031663474ba8d0858585856040518563ffffffff1660e060020a0281526004018080602001806020018060200180602001858103855289818151815260200191508051906020019080838360005b8381101561340f5781810151838201526020016133f7565b50505050905090810190601f16801561343c5780820380516001836020036101000a031916815260200191505b5085810384528851815288516020918201918a019080838360005b8381101561346f578181015183820152602001613457565b50505050905090810190601f16801561349c5780820380516001836020036101000a031916815260200191505b50858103835287518152875160209182019189019080838360005b838110156134cf5781810151838201526020016134b7565b50505050905090810190601f1680156134fc5780820380516001836020036101000a031916815260200191505b50858103825286518152865160209182019188019080838360005b8381101561352f578181015183820152602001613517565b50505050905090810190601f16801561355c5780820380516001836020036101000a031916815260200191505b5098505050505050505050600060405180830381600087803b15801561358157600080fd5b505af1158015613595573d6000803e3d6000fd5b5050604080516020808252600790820152600080516020615d93833981519152818301529051600080516020615d738339815191529350908190036060019150a15050505050565b6040805160208082526011908201527f5048522e617070656e644f726744657074000000000000000000000000000000818301529051600080516020615d538339815191529181900360600190a161363482613167565b600160a060020a03166325093c5f826040518263ffffffff1660e060020a02815260040180806020018281038252838181518152602001915080519060200190808383600083811015612b76578181015183820152602001612b5e565b60006060826000858154811015156136a557fe5b6000918252602082200154604080517f5309ce58000000000000000000000000000000000000000000000000000000008152600481018890529051600160a060020a0390921692635309ce589260248084019382900301818387803b158015610cbe57600080fd5b604080516020808252600d908201527f5048522e617070656e644f726700000000000000000000000000000000000000818301529051600091600080516020615d53833981519152919081900360600190a1613767614034565b604051809103906000f080158015613783573d6000803e3d6000fd5b50905080600160a060020a0316636204d3478585856040518463ffffffff1660e060020a02815260040180806020018060200180602001848103845287818151815260200191508051906020019080838360005b838110156137ef5781810151838201526020016137d7565b50505050905090810190601f16801561381c5780820380516001836020036101000a031916815260200191505b50848103835286518152865160209182019188019080838360005b8381101561384f578181015183820152602001613837565b50505050905090810190601f16801561387c5780820380516001836020036101000a031916815260200191505b50848103825285518152855160209182019187019080838360005b838110156138af578181015183820152602001613897565b50505050905090810190601f1680156138dc5780820380516001836020036101000a031916815260200191505b509650505050505050600060405180830381600087803b1580156138ff57600080fd5b505af1158015613913573d6000803e3d6000fd5b50506001805480820182556000919091527fb10e2d527612073b26eecdfd717e6a320cf44b4afac2b0732d9fcbe2b7fa0cf601805473ffffffffffffffffffffffffffffffffffffffff1916600160a060020a0385161790555050604080516020808252600790820152600080516020615d93833981519152818301529051600080516020615d73833981519152916060908290030190a150505050565b600080826000858154811015156139c457fe5b9060005260206000200160009054906101000a9004600160a060020a0316600160a060020a031663de2bec99856040518263ffffffff1660e060020a02815260040180828152602001915050602060405180830381600087803b158015613a2a57600080fd5b505af1158015613a3e573d6000803e3d6000fd5b505050506040513d6020811015613a5457600080fd5b5051909590945092505050565b6000606082600085815481101515613a7557fe5b6000918252602082200154604080517f4af3a6e5000000000000000000000000000000000000000000000000000000008152600481018890529051600160a060020a0390921692634af3a6e59260248084019382900301818387803b158015610cbe57600080fd5b6000805b60005481101561306b576040517f15706fdf00000000000000000000000000000000000000000000000000000000815260206004820181815285516024840152855173__Lib___________________________________936315706fdf9388939283926044019185019080838360005b83811015613b69578181015183820152602001613b51565b50505050905090810190601f168015613b965780820380516001836020036101000a031916815260200191505b509250505060206040518083038186803b158015613bb357600080fd5b505af4158015613bc7573d6000803e3d6000fd5b505050506040513d6020811015613bdd57600080fd5b505160008054600160a060020a039092169183908110613bf957fe5b9060005260206000200160009054906101000a9004600160a060020a0316600160a060020a031663a74c2bb66040518163ffffffff1660e060020a028152600401602060405180830381600087803b158015613c5457600080fd5b505af1158015613c68573d6000803e3d6000fd5b505050506040513d6020811015613c7e57600080fd5b5051600160a060020a03161415613c9d57600080548290811061332757fe5b600101613ae1565b613cae88613add565b600160a060020a031663d274a030888888888888886040518863ffffffff1660e060020a028152600401808060200180602001806020018060200180602001806020018060200188810388528f818151815260200191508051906020019080838360005b83811015613d2a578181015183820152602001613d12565b50505050905090810190601f168015613d575780820380516001836020036101000a031916815260200191505b5088810387528e818151815260200191508051906020019080838360005b83811015613d8d578181015183820152602001613d75565b50505050905090810190601f168015613dba5780820380516001836020036101000a031916815260200191505b5088810386528d5181528d516020918201918f019080838360005b83811015613ded578181015183820152602001613dd5565b50505050905090810190601f168015613e1a5780820380516001836020036101000a031916815260200191505b5088810385528c5181528c516020918201918e019080838360005b83811015613e4d578181015183820152602001613e35565b50505050905090810190601f168015613e7a5780820380516001836020036101000a031916815260200191505b5088810384528b5181528b516020918201918d019080838360005b83811015613ead578181015183820152602001613e95565b50505050905090810190601f168015613eda5780820380516001836020036101000a031916815260200191505b5088810383528a5181528a516020918201918c019080838360005b83811015613f0d578181015183820152602001613ef5565b50505050905090810190601f168015613f3a5780820380516001836020036101000a031916815260200191505b5088810382528951815289516020918201918b019080838360005b83811015613f6d578181015183820152602001613f55565b50505050905090810190601f168015613f9a5780820380516001836020036101000a031916815260200191505b509e505050505050505050505050505050600060405180830381600087803b158015613fc557600080fd5b505af1158015613fd9573d6000803e3d6000fd5b5050604080516020808252600790820152600080516020615d93833981519152818301529051600080516020615d738339815191529350908190036060019150a15050505050505050565b6040516110938061404583390190565b604051610c7b806150d8833901905600608060405234801561001057600080fd5b50611073806100206000396000f3006080604052600436106100e55763ffffffff7c01000000000000000000000000000000000000000000000000000000006000350416631770c2e981146100ea57806317d7de7c1461017757806319e509441461018c5780634af3a6e5146101a45780635309ce58146101bc5780635b4f9621146101d457806360bfdd24146101ec5780637c38a8c314610213578063a74c2bb614610228578063ab9dbd0714610266578063d12a7f291461027b578063d274a03014610290578063de2bec991461045f578063e2c4206a14610477578063e4f7919b1461048f578063f2188a841461061e575b600080fd5b3480156100f657600080fd5b50610102600435610633565b6040805160208082528351818301528351919283929083019185019080838360005b8381101561013c578181015183820152602001610124565b50505050905090810190601f1680156101695780820380516001836020036101000a031916815260200191505b509250505060405180910390f35b34801561018357600080fd5b506101026106e6565b34801561019857600080fd5b5061010260043561077a565b3480156101b057600080fd5b506101026004356107f6565b3480156101c857600080fd5b50610102600435610872565b3480156101e057600080fd5b506101026004356108ee565b3480156101f857600080fd5b50610201610979565b60408051918252519081900360200190f35b34801561021f57600080fd5b5061010261097f565b34801561023457600080fd5b5061023d6109e0565b6040805173ffffffffffffffffffffffffffffffffffffffff9092168252519081900360200190f35b34801561027257600080fd5b506101026109fc565b34801561028757600080fd5b50610102610a5c565b34801561029c57600080fd5b506040805160206004803580820135601f810184900484028501840190955284845261045d94369492936024939284019190819084018382808284375050604080516020601f89358b018035918201839004830284018301909452808352979a99988101979196509182019450925082915084018382808284375050604080516020601f89358b018035918201839004830284018301909452808352979a99988101979196509182019450925082915084018382808284375050604080516020601f89358b018035918201839004830284018301909452808352979a99988101979196509182019450925082915084018382808284375050604080516020601f89358b018035918201839004830284018301909452808352979a99988101979196509182019450925082915084018382808284375050604080516020601f89358b018035918201839004830284018301909452808352979a99988101979196509182019450925082915084018382808284375050604080516020601f89358b018035918201839004830284018301909452808352979a999881019791965091820194509250829150840183828082843750949750610abd9650505050505050565b005b34801561046b57600080fd5b5061023d600435610cf9565b34801561048357600080fd5b50610102600435610d37565b34801561049b57600080fd5b506040805160206004803580820135601f810184900484028501840190955284845261045d94369492936024939284019190819084018382808284375050604080516020601f89358b018035918201839004830284018301909452808352979a99988101979196509182019450925082915084018382808284375050604080516020601f89358b018035918201839004830284018301909452808352979a99988101979196509182019450925082915084018382808284375050604080516020601f89358b018035918201839004830284018301909452808352979a99988101979196509182019450925082915084018382808284375050604080516020601f89358b018035918201839004830284018301909452808352979a99988101979196509182019450925082915084018382808284375050604080516020601f89358b018035918201839004830284018301909452808352979a999881019791965091820194509250829150840183828082843750949750610db59650505050505050565b34801561062a57600080fd5b50610102610f4e565b606060088281548110151561064457fe5b6000918252602091829020600560079092020101805460408051601f60026000196101006001871615020190941693909304928301859004850281018501909152818152928301828280156106da5780601f106106af576101008083540402835291602001916106da565b820191906000526020600020905b8154815290600101906020018083116106bd57829003601f168201915b50505050509050919050565b60028054604080516020601f600019610100600187161502019094168590049384018190048102820181019092528281526060939092909183018282801561076f5780601f106107445761010080835404028352916020019161076f565b820191906000526020600020905b81548152906001019060200180831161075257829003601f168201915b505050505090505b90565b606060088281548110151561078b57fe5b6000918252602091829020600460079092020101805460408051601f60026000196101006001871615020190941693909304928301859004850281018501909152818152928301828280156106da5780601f106106af576101008083540402835291602001916106da565b606060088281548110151561080757fe5b6000918252602091829020600660079092020101805460408051601f60026000196101006001871615020190941693909304928301859004850281018501909152818152928301828280156106da5780601f106106af576101008083540402835291602001916106da565b606060088281548110151561088357fe5b6000918252602091829020600360079092020101805460408051601f60026000196101006001871615020190941693909304928301859004850281018501909152818152928301828280156106da5780601f106106af576101008083540402835291602001916106da565b60606008828154811015156108ff57fe5b90600052602060002090600702016001018054600181600116156101000203166002900480601f0160208091040260200160405190810160405280929190818152602001828054600181600116156101000203166002900480156106da5780601f106106af576101008083540402835291602001916106da565b60085490565b60078054604080516020601f600260001961010060018816150201909516949094049384018190048102820181019092528281526060939092909183018282801561076f5780601f106107445761010080835404028352916020019161076f565b60005473ffffffffffffffffffffffffffffffffffffffff1690565b60018054604080516020601f6002600019610100878916150201909516949094049384018190048102820181019092528281526060939092909183018282801561076f5780601f106107445761010080835404028352916020019161076f565b60048054604080516020601f600260001961010060018816150201909516949094049384018190048102820181019092528281526060939092909183018282801561076f5780601f106107445761010080835404028352916020019161076f565b600860e06040519081016040528073__Lib___________________________________6315706fdf8b6040518263ffffffff167c01000000000000000000000000000000000000000000000000000000000281526004018080602001828103825283818151815260200191508051906020019080838360005b83811015610b4e578181015183820152602001610b36565b50505050905090810190601f168015610b7b5780820380516001836020036101000a031916815260200191505b509250505060206040518083038186803b158015610b9857600080fd5b505af4158015610bac573d6000803e3d6000fd5b505050506040513d6020811015610bc257600080fd5b505173ffffffffffffffffffffffffffffffffffffffff908116825260208083018b9052604083018a9052606083018990526080830188905260a0830187905260c0909201859052835460018082018087556000968752958490208551600790930201805473ffffffffffffffffffffffffffffffffffffffff1916929093169190911782558383015180519293610c609392850192910190610faf565b5060408201518051610c7c916002840191602090910190610faf565b5060608201518051610c98916003840191602090910190610faf565b5060808201518051610cb4916004840191602090910190610faf565b5060a08201518051610cd0916005840191602090910190610faf565b5060c08201518051610cec916006840191602090910190610faf565b5050505050505050505050565b6000600882815481101515610d0a57fe5b600091825260209091206007909102015473ffffffffffffffffffffffffffffffffffffffff1692915050565b6060600882815481101515610d4857fe5b600091825260209182902060026007909202018101805460408051601f6000196101006001861615020190931694909404918201859004850284018501905280835291929091908301828280156106da5780601f106106af576101008083540402835291602001916106da565b6040517f15706fdf00000000000000000000000000000000000000000000000000000000815260206004820181815288516024840152885173__Lib___________________________________936315706fdf938b939283926044019185019080838360005b83811015610e33578181015183820152602001610e1b565b50505050905090810190601f168015610e605780820380516001836020036101000a031916815260200191505b509250505060206040518083038186803b158015610e7d57600080fd5b505af4158015610e91573d6000803e3d6000fd5b505050506040513d6020811015610ea757600080fd5b50516000805473ffffffffffffffffffffffffffffffffffffffff191673ffffffffffffffffffffffffffffffffffffffff9092169190911790558451610ef5906002906020880190610faf565b508351610f09906001906020870190610faf565b508251610f1d906003906020860190610faf565b508151610f31906004906020850190610faf565b508051610f45906007906020840190610faf565b50505050505050565b60038054604080516020601f600260001961010060018816150201909516949094049384018190048102820181019092528281526060939092909183018282801561076f5780601f106107445761010080835404028352916020019161076f565b828054600181600116156101000203166002900490600052602060002090601f016020900481019282601f10610ff057805160ff191683800117855561101d565b8280016001018555821561101d579182015b8281111561101d578251825591602001919060010190611002565b5061102992915061102d565b5090565b61077791905b8082111561102957600081556001016110335600a165627a7a72305820180ed3a78355885ce3b4ffb25d681f622a89bb45a3904bb04d8737af8311c5df0029608060405234801561001057600080fd5b50610c5b806100206000396000f3006080604052600436106100c45763ffffffff7c010000000000000000000000000000000000000000000000000000000060003504166317d7de7c81146100c957806325093c5f146101535780632fe41f0a146101ae578063474ba8d0146101cc5780634dab7c9a146102df5780634fd26848146102fd5780636204d3471461035657806367a444091461042b5780638456062514610449578063a69750c41461045e578063a74c2bb61461047c578063ad69d676146104ba578063e9127e79146104d8575b600080fd5b3480156100d557600080fd5b506100de6104f6565b6040805160208082528351818301528351919283929083019185019080838360005b83811015610118578181015183820152602001610100565b50505050905090810190601f1680156101455780820380516001836020036101000a031916815260200191505b509250505060405180910390f35b34801561015f57600080fd5b506040805160206004803580820135601f81018490048402850184019095528484526101ac94369492936024939284019190819084018382808284375094975061058c9650505050505050565b005b3480156101ba57600080fd5b506100de63ffffffff600435166105d5565b3480156101d857600080fd5b506040805160206004803580820135601f81018490048402850184019095528484526101ac94369492936024939284019190819084018382808284375050604080516020601f89358b018035918201839004830284018301909452808352979a99988101979196509182019450925082915084018382808284375050604080516020601f89358b018035918201839004830284018301909452808352979a99988101979196509182019450925082915084018382808284375050604080516020601f89358b018035918201839004830284018301909452808352979a99988101979196509182019450925082915084018382808284375094975061068e9650505050505050565b3480156102eb57600080fd5b506100de63ffffffff60043516610757565b34801561030957600080fd5b506040805160206004803580820135601f81018490048402850184019095528484526101ac9436949293602493928401919081908401838280828437509497506107d19650505050505050565b34801561036257600080fd5b506040805160206004803580820135601f81018490048402850184019095528484526101ac94369492936024939284019190819084018382808284375050604080516020601f89358b018035918201839004830284018301909452808352979a99988101979196509182019450925082915084018382808284375050604080516020601f89358b018035918201839004830284018301909452808352979a9998810197919650918201945092508291508401838280828437509497506108159650505050505050565b34801561043757600080fd5b506100de63ffffffff6004351661096f565b34801561045557600080fd5b506100de610a00565b34801561046a57600080fd5b506100de63ffffffff60043516610a61565b34801561048857600080fd5b50610491610ae5565b6040805173ffffffffffffffffffffffffffffffffffffffff9092168252519081900360200190f35b3480156104c657600080fd5b506100de63ffffffff60043516610b01565b3480156104e457600080fd5b506100de63ffffffff60043516610b80565b60018054604080516020601f600260001961010087891615020190951694909404938401819004810282018101909252828152606093909290918301828280156105815780601f1061055657610100808354040283529160200191610581565b820191906000526020600020905b81548152906001019060200180831161056457829003601f168201915b505050505090505b90565b600280546001810180835560009290925282516105d0917f405787fa12a823e0f2b7631cc41b3ba8828b3321ca811111fa75cd3aa3bb5ace01906020850190610b97565b505050565b606060058263ffffffff168154811015156105ec57fe5b6000918252602091829020600360049092020101805460408051601f60026000196101006001871615020190941693909304928301859004850281018501909152818152928301828280156106825780601f1061065757610100808354040283529160200191610682565b820191906000526020600020905b81548152906001019060200180831161066557829003601f168201915b50505050509050919050565b60408051608081018252858152602080820186905291810184905260608101839052600580546001810180835560009290925282518051929460049092027f036b6384b5eca791c62761152d0c79bb0604c104a5fb6f4eb0703f3154bb3db001926106fc9284920190610b97565b5060208281015180516107159260018501920190610b97565b5060408201518051610731916002840191602090910190610b97565b506060820151805161074d916003840191602090910190610b97565b5050505050505050565b606060028263ffffffff1681548110151561076e57fe5b600091825260209182902001805460408051601f60026000196101006001871615020190941693909304928301859004850281018501909152818152928301828280156106825780601f1061065757610100808354040283529160200191610682565b600480546001810180835560009290925282516105d0917f8a35acfbc15ff81a39ae7d344fd709f28e8600b4aa8c65c6b64bfe7fe36bd19b01906020850190610b97565b6040517f15706fdf00000000000000000000000000000000000000000000000000000000815260206004820181815285516024840152855173__Lib___________________________________936315706fdf9388939283926044019185019080838360005b8381101561089357818101518382015260200161087b565b50505050905090810190601f1680156108c05780820380516001836020036101000a031916815260200191505b509250505060206040518083038186803b1580156108dd57600080fd5b505af41580156108f1573d6000803e3d6000fd5b505050506040513d602081101561090757600080fd5b50516000805473ffffffffffffffffffffffffffffffffffffffff191673ffffffffffffffffffffffffffffffffffffffff9092169190911790558151610955906001906020850190610b97565b508051610969906003906020840190610b97565b50505050565b606060058263ffffffff1681548110151561098657fe5b90600052602060002090600402016001018054600181600116156101000203166002900480601f0160208091040260200160405190810160405280929190818152602001828054600181600116156101000203166002900480156106825780601f1061065757610100808354040283529160200191610682565b60038054604080516020601f60026000196101006001881615020190951694909404938401819004810282018101909252828152606093909290918301828280156105815780601f1061055657610100808354040283529160200191610581565b606060058263ffffffff16815481101515610a7857fe5b600091825260209182902060026004909202018101805460408051601f6000196101006001861615020190931694909404918201859004850284018501905280835291929091908301828280156106825780601f1061065757610100808354040283529160200191610682565b60005473ffffffffffffffffffffffffffffffffffffffff1690565b606060058263ffffffff16815481101515610b1857fe5b6000918252602091829020600490910201805460408051601f60026000196101006001871615020190941693909304928301859004850281018501909152818152928301828280156106825780601f1061065757610100808354040283529160200191610682565b606060048263ffffffff1681548110151561076e57fe5b828054600181600116156101000203166002900490600052602060002090601f016020900481019282601f10610bd857805160ff1916838001178555610c05565b82800160010185558215610c05579182015b82811115610c05578251825591602001919060010190610bea565b50610c11929150610c15565b5090565b61058991905b80821115610c115760008155600101610c1b5600a165627a7a7230582054689b287a9aacba5c88016488dae659d09d35a93e5e880f3f6f05ed12aa1a03002941304facd9323d75b11bcdd609cb38effffdb05710f7caf0e9b16c6d9d709f5005c766d1c5ea6f40afc38cd8e27308c236c492fbcfa32b458d2755cf76ec1e215375636365737300000000000000000000000000000000000000000000000000a165627a7a723058201ca19a61ce3a05a57985788f2947d1af6d27050daaaff229179822ea56e9b89a0029",
  "source": "pragma solidity ^0.4.21;\r\nimport \"./Person.sol\";\r\nimport \"./Organization.sol\";\r\nimport \"./Lib.sol\";\r\ncontract PHR {\r\n    Person[] persons;\r\n    Organization[] organizations;\r\n    \r\n    event log(string str);\r\n    event message(string str);\r\n    \r\n    function logTest() public {\r\n        emit log(\"logTest\");\r\n    }\r\n    function appendPerson(string pAddr, string pName, string pID, string pRegistNum, string pBirth, string pGender) public\r\n    {\r\n        emit log(\"PHR.appendPerson\");\r\n        emit log(pAddr);\r\n       \r\n        Person person = new Person();\r\n\r\n        person.setPerson(pAddr, pName, pID, pRegistNum, pBirth, pGender);\r\n\r\n        persons.push(person);\r\n\r\n        emit message(\"Success\");\r\n        \r\n    }\r\n\r\n    function appendOrg(string pAddr, string pName, string pPurpose) public\r\n    {\r\n        emit log(\"PHR.appendOrg\");\r\n        // check require\r\n        Organization org = new Organization();\r\n        org.setOrganization(pAddr, pName, pPurpose);\r\n        organizations.push(org);\r\n        emit message(\"Success\");\r\n    }\r\n    \r\n    \r\n    function getPerson(string pAddr) public constant returns(Person) {\r\n        //emit log(\"PHR.getPerson\");\r\n        //emit log(\"pAddr\");\r\n        //emit log(pAddr);\r\n        for (uint i=0; i < persons.length; i++) {\r\n            if (persons[i].getAddr() == Lib.stringToAddress(pAddr)) {\r\n                //emit log(\"================\");\r\n                //emit log(Lib.intToStr(int256(persons[i].getAddr())));\r\n                //emit log(Lib.intToStr(int256(Lib.stringToAddress(pAddr))));\r\n                return persons[i];\r\n            }\r\n        }\r\n    }\r\n\r\n    function getPersonIdx(string pAddr) public constant returns(uint32) {\r\n        //emit log(\"PHR.getPersonIdx\");\r\n        for (uint32 i=0; i < persons.length; i++) {\r\n            if (persons[i].getAddr() == Lib.stringToAddress(pAddr)) {\r\n                return i;\r\n            }\r\n        }\r\n    }\r\n/*\r\n    function getPersonRecord(string pAddr) public constant returns(uint8,string) {\r\n        uint8 count = 0;\r\n\r\n        string memory sResult;\r\n\r\n        uint32 i = getPersonIdx(pAddr);\r\n\r\n        sResult = Lib.mergeStrings(sResult, Lib.addressToString(persons[i].getAddr()));\r\n        sResult = Lib.mergeStrings(sResult, persons[i].getName());\r\n        sResult = Lib.mergeStrings(sResult, persons[i].getID());\r\n        sResult = Lib.mergeStrings(sResult, persons[i].getRegistNum());\r\n        sResult = Lib.mergeStrings(sResult, persons[i].getBirth());\r\n        sResult = Lib.mergeStrings(sResult, persons[i].getGender());\r\n        count++;\r\n\r\n        return ( count,  sResult);\r\n    }\r\n*/\r\n    function getPersonRecord(string pRegNum,string pName,string pBirth) public constant returns(uint8,string) \r\n    {\r\n        bool bRegNum = true; \r\n        bool bName = true; \r\n        bool bBirth = true; \r\n        uint8 count = 0;\r\n\r\n        string memory sResult;\r\n\r\n        for (uint8 i=0; i < persons.length; i++) {\r\n            if (keccak256(pRegNum) == keccak256(\"\") ) {\r\n                bRegNum = true;                \r\n            } else {\r\n                if (keccak256(persons[i].getRegistNum()) == keccak256(pRegNum)) {\r\n                    bRegNum = true;\r\n                } else {\r\n                    bRegNum = false;\r\n                }\r\n            }\r\n\r\n            if (keccak256(pName) == keccak256(\"\") ) {\r\n                bName = true;                \r\n            } else {\r\n                if (keccak256(persons[i].getName()) == keccak256(pName)) {\r\n                    bName = true;\r\n                } else {\r\n                    bName = false;\r\n                }\r\n            }\r\n\r\n            if (keccak256(pBirth) == keccak256(\"\") ) {\r\n                bBirth = true;                \r\n            } else {\r\n                if (keccak256(persons[i].getBirth()) == keccak256(pBirth)) {\r\n                    bBirth = true;\r\n                } else {\r\n                    bBirth = false;\r\n                }\r\n            }\r\n\r\n            /* , ,      */\r\n            if (bRegNum && bName && bBirth) {\r\n                sResult = Lib.mergeStrings(sResult, Lib.addressToString(persons[i].getAddr()));\r\n                sResult = Lib.mergeStrings(sResult, persons[i].getName());\r\n                sResult = Lib.mergeStrings(sResult, persons[i].getID());\r\n                sResult = Lib.mergeStrings(sResult, persons[i].getRegistNum());\r\n                sResult = Lib.mergeStrings(sResult, persons[i].getBirth());\r\n                sResult = Lib.mergeStrings(sResult, persons[i].getGender());\r\n                count++;\r\n            }\r\n        }\r\n        //return ( count,  Lib.strToByte1000(sResult));\r\n        return ( count,  sResult);\r\n    }\r\n\r\n    function getOrg(string orgAddr) public constant returns(Organization) {\r\n        //emit log(\"PHR.appendPerson\");\r\n        for (uint i=0; i < organizations.length; i++) {\r\n            if (organizations[i].getAddr() == Lib.stringToAddress(orgAddr)) {\r\n                return organizations[i];\r\n            }\r\n        }\r\n    }\r\n    \r\n\r\n    function appendOrgDept(string pOrgAddr, string pDept) public\r\n    {\r\n        emit log(\"PHR.appendOrgDept\");\r\n        // check require\r\n        getOrg(pOrgAddr).appendDepartment(pDept);\r\n        emit message(\"Success\");\r\n    }\r\n    \r\n    function appendOrgStaff(string pOrgAddr, string pStaff) public\r\n    {\r\n        emit log(\"PHR.appendOrgStaff\");\r\n        // check require\r\n        getOrg(pOrgAddr).appendStaff(pStaff);\r\n        emit message(\"Success\");\r\n    }    \r\n\r\n    function appendMR(string pAddr, string pMedOrgAddr, string pTreatDate, \r\n                    string pDiseaseCode, string pDepart, string pMedStaff, \r\n                    string pClsData, string pAttachKey) public \r\n    {\r\n        //emit log(\"PHR.appendMR\");\r\n        //emit log(\"PHR.appendMR 1\");\r\n        \r\n        getPerson(pAddr).appendMR(pMedOrgAddr, pTreatDate, pDiseaseCode, pDepart, pMedStaff, pClsData, pAttachKey);\r\n        \r\n        emit message(\"Success\");\r\n    }    \r\n\r\n    function appendAcqPI(string pOrgAddr, string pPerAddr,\r\n        string pPath,\r\n        string pAcqDate,\r\n        string pEndDate) public\r\n    {\r\n        emit log(\"PHR.appendAcqPI\");\r\n        getOrg(pOrgAddr).appendAcqPI(pPerAddr,pPath,pAcqDate,pEndDate);\r\n        emit message(\"Success\");\r\n    }\r\n    function getMRLength(string pPerAddr) public constant returns(uint){return getPerson(pPerAddr).getMRLength();}\r\n\r\n    function getMRmedOrgAddr(uint pPsIdx,uint pMRIdx) public constant returns(uint, address){return (pMRIdx, persons[pPsIdx].getMRmedOrgAddr(pMRIdx));}\r\n\r\n    function getMRtreatDate(uint pPsIdx,uint pMRIdx) public constant  returns(uint,string){return (pMRIdx, persons[pPsIdx].getMRtreatDate(pMRIdx));}\r\n    function getMRdiseaseCode(uint pPsIdx,uint pMRIdx) public constant returns(uint,string){return (pMRIdx, persons[pPsIdx].getMRdiseaseCode(pMRIdx));}\r\n    function getMRdepart(uint pPsIdx,uint pMRIdx) public constant returns(uint,string){return (pMRIdx, persons[pPsIdx].getMRdepart(pMRIdx));}\r\n    function getMRmedStaff(uint pPsIdx,uint pMRIdx) public constant returns(uint,string){return (pMRIdx, persons[pPsIdx].getMRmedStaff(pMRIdx));}\r\n    function getMRclsData(uint pPsIdx,uint pMRIdx) public constant returns(uint,string){return (pMRIdx, persons[pPsIdx].getMRclsData(pMRIdx));}\r\n    function getMRattachKey(uint pPsIdx,uint pMRIdx) public constant returns(uint,string){return (pMRIdx, persons[pPsIdx].getMRattachKey(pMRIdx));}\r\n    function getMRmedOrgName(uint pPsIdx,uint pMRIdx) public constant returns(uint,string)\r\n    {\r\n        address orgaddr = persons[pPsIdx].getMRmedOrgAddr(pMRIdx);\r\n        string memory org = getOrg(Lib.addressToString(orgaddr)).getName();\r\n        \r\n        return (pMRIdx, org);\r\n    }\r\n\r\n/*\r\n    function getMRtreatDate(uint pPsIdx,uint pMRIdx) public constant  returns(uint, byte[100]){return (pMRIdx, persons[pPsIdx].getMRtreatDate(pMRIdx));}\r\n    function getMRdiseaseCode(uint pPsIdx,uint pMRIdx) public constant returns(uint, byte[100]){return (pMRIdx, persons[pPsIdx].getMRdiseaseCode(pMRIdx));}\r\n    function getMRdepart(uint pPsIdx,uint pMRIdx) public constant returns(uint, byte[100]){return (pMRIdx, persons[pPsIdx].getMRdepart(pMRIdx));}\r\n    function getMRmedStaff(uint pPsIdx,uint pMRIdx) public constant returns(uint, byte[100]){return (pMRIdx, persons[pPsIdx].getMRmedStaff(pMRIdx));}\r\n    function getMRclsData(uint pPsIdx,uint pMRIdx) public constant returns(uint, byte[100]){return (pMRIdx, persons[pPsIdx].getMRclsData(pMRIdx));}\r\n    function getMRattachKey(uint pPsIdx,uint pMRIdx) public constant returns(uint, byte[100]){return (pMRIdx, persons[pPsIdx].getMRattachKey(pMRIdx));}\r\n    function getMRmedOrgName(uint pPsIdx,uint pMRIdx) public constant returns(uint, byte[100])\r\n    {\r\n        address orgaddr = persons[pPsIdx].getMRmedOrgAddr(pMRIdx);\r\n        string memory org = getOrg(Lib.addressToString(orgaddr)).getName();\r\n        \r\n        return (pMRIdx, Lib.strToByte(org));\r\n    }\r\n*/\r\n\r\n/*\r\n    function getMrRecord(uint pPsIdx,uint pMRIdx) public constant returns(uint8,string) \r\n    {\r\n        uint8 count = 0;\r\n\r\n        string memory sResult;\r\n\r\n        sResult = Lib.mergeStrings(sResult, persons[pPsIdx].getMRtreatDate(pMRIdx));      \r\n        sResult = Lib.mergeStrings(sResult, persons[pPsIdx].getMRdiseaseCode(pMRIdx));    \r\n        sResult = Lib.mergeStrings(sResult, persons[pPsIdx].getMRdepart(pMRIdx));         \r\n        sResult = Lib.mergeStrings(sResult, persons[pPsIdx].getMRmedStaff(pMRIdx));       \r\n        sResult = Lib.mergeStrings(sResult, persons[pPsIdx].getMRclsData(pMRIdx));        \r\n        sResult = Lib.mergeStrings(sResult, persons[pPsIdx].getMRattachKey(pMRIdx));    \r\n        \r\n        address orgaddr = persons[pPsIdx].getMRmedOrgAddr(pMRIdx);\r\n        string memory orgName = getOrg(Lib.addressToString(orgaddr)).getName();\r\n        sResult = Lib.mergeStrings(sResult, orgName);      \r\n        count++;\r\n\r\n        //return ( count,  Lib.strToByte1000(sResult));\r\n        return ( count,  sResult);\r\n    }\r\n\r\n */\r\n    \r\n}\r\n",
  "sourcePath": "C:\\truffle\\PHR\\contracts\\PHR.sol",
  "compiler": {
    "name": "solc",
    "version": "0.4.24+commit.e67f0147.Emscripten.clang"
  },
  "schemaVersion": "2.0.1",
  "updatedAt": "2018-12-19T08:44:44.237Z"
}